{
  "contractName": "Staker",
  "abi": [
    {
      "anonymous": false,
      "inputs": [
        {
          "indexed": false,
          "internalType": "address",
          "name": "staker",
          "type": "address"
        },
        {
          "indexed": false,
          "internalType": "uint256",
          "name": "amount",
          "type": "uint256"
        }
      ],
      "name": "Stake",
      "type": "event"
    },
    {
      "inputs": [],
      "name": "RWT",
      "outputs": [
        {
          "internalType": "contract RewardToken",
          "name": "",
          "type": "address"
        }
      ],
      "stateMutability": "view",
      "type": "function",
      "constant": true
    },
    {
      "inputs": [
        {
          "internalType": "address",
          "name": "",
          "type": "address"
        }
      ],
      "name": "balances",
      "outputs": [
        {
          "internalType": "uint256",
          "name": "",
          "type": "uint256"
        }
      ],
      "stateMutability": "view",
      "type": "function",
      "constant": true
    },
    {
      "inputs": [],
      "name": "name",
      "outputs": [
        {
          "internalType": "string",
          "name": "",
          "type": "string"
        }
      ],
      "stateMutability": "view",
      "type": "function",
      "constant": true
    },
    {
      "inputs": [],
      "name": "threshold",
      "outputs": [
        {
          "internalType": "uint256",
          "name": "",
          "type": "uint256"
        }
      ],
      "stateMutability": "view",
      "type": "function",
      "constant": true
    },
    {
      "inputs": [],
      "name": "stake",
      "outputs": [],
      "stateMutability": "payable",
      "type": "function",
      "payable": true
    }
  ],
  "bytecode": "0x60806040526040518060400160405280601a81526020017f4c7569736361205374616b696e67204170706c69636174696f6e0000000000008152506000908051906020019061004f929190610062565b5034801561005c57600080fd5b50610166565b82805461006e90610105565b90600052602060002090601f01602090048101928261009057600085556100d7565b82601f106100a957805160ff19168380011785556100d7565b828001600101855582156100d7579182015b828111156100d65782518255916020019190600101906100bb565b5b5090506100e491906100e8565b5090565b5b808211156101015760008160009055506001016100e9565b5090565b6000600282049050600182168061011d57607f821691505b6020821081141561013157610130610137565b5b50919050565b7f4e487b7100000000000000000000000000000000000000000000000000000000600052602260045260246000fd5b610598806101756000396000f3fe60806040526004361061004a5760003560e01c806306fdde031461004f57806327e235e31461007a5780633a4b66f1146100b757806342cde4e8146100c15780637cd16976146100ec575b600080fd5b34801561005b57600080fd5b50610064610117565b6040516100719190610368565b60405180910390f35b34801561008657600080fd5b506100a1600480360381019061009c9190610295565b6101a5565b6040516100ae919061038a565b60405180910390f35b6100bf6101bd565b005b3480156100cd57600080fd5b506100d661024e565b6040516100e3919061038a565b60405180910390f35b3480156100f857600080fd5b5061010161025a565b60405161010e919061034d565b60405180910390f35b60008054610124906104aa565b80601f0160208091040260200160405190810160405280929190818152602001828054610150906104aa565b801561019d5780601f106101725761010080835404028352916020019161019d565b820191906000526020600020905b81548152906001019060200180831161018057829003601f168201915b505050505081565b60026020528060005260406000206000915090505481565b7febedb8b3c678666e7f36970bc8f57abf6d8fa2e828c0da91ea5b75bf68ed101a33346040516101ee929190610324565b60405180910390a134600260003373ffffffffffffffffffffffffffffffffffffffff1673ffffffffffffffffffffffffffffffffffffffff168152602001908152602001600020600082825461024591906103c1565b92505081905550565b670de0b6b3a764000081565b600160009054906101000a900473ffffffffffffffffffffffffffffffffffffffff1681565b60008135905061028f8161054b565b92915050565b6000602082840312156102a757600080fd5b60006102b584828501610280565b91505092915050565b6102c781610417565b82525050565b6102d681610453565b82525050565b60006102e7826103a5565b6102f181856103b0565b9350610301818560208601610477565b61030a8161053a565b840191505092915050565b61031e81610449565b82525050565b600060408201905061033960008301856102be565b6103466020830184610315565b9392505050565b600060208201905061036260008301846102cd565b92915050565b6000602082019050818103600083015261038281846102dc565b905092915050565b600060208201905061039f6000830184610315565b92915050565b600081519050919050565b600082825260208201905092915050565b60006103cc82610449565b91506103d783610449565b9250827fffffffffffffffffffffffffffffffffffffffffffffffffffffffffffffffff0382111561040c5761040b6104dc565b5b828201905092915050565b600061042282610429565b9050919050565b600073ffffffffffffffffffffffffffffffffffffffff82169050919050565b6000819050919050565b600061045e82610465565b9050919050565b600061047082610429565b9050919050565b60005b8381101561049557808201518184015260208101905061047a565b838111156104a4576000848401525b50505050565b600060028204905060018216806104c257607f821691505b602082108114156104d6576104d561050b565b5b50919050565b7f4e487b7100000000000000000000000000000000000000000000000000000000600052601160045260246000fd5b7f4e487b7100000000000000000000000000000000000000000000000000000000600052602260045260246000fd5b6000601f19601f8301169050919050565b61055481610417565b811461055f57600080fd5b5056fea26469706673582212203f926215978f93c049a8f2bae240ea9301181f3858afd71aa40f4ed09ec7ee5064736f6c63430008040033",
  "immutableReferences": {},
  "source": "// contracts/Staker.sol\n/* SPDX-License-Identifier: GPL-3.0\nAuthored by Luis Ignacio Callero\nWith great help from Greg DappUniversity https://www.youtube.com/watch?v=sCE-fQJAVQ4\n    and Austin Griffith https://github.com/scaffold-eth/scaffold-eth/blob/staking-app/packages/hardhat/contracts/Staker.sol \n*/\n\npragma solidity ^0.8.4;\n\nimport \"./RewardToken.sol\";\n\ncontract Staker {\n    string public name = \"Luisca Staking Application\";\n    RewardToken public RWT;\n\n    event Stake(address staker, uint256 amount);\n\n    uint256 public constant threshold = 1 ether;\n\n    mapping ( address => uint256 ) public balances;\n\n    function stake() public payable {\n        emit Stake(msg.sender, msg.value);\n        balances[msg.sender] += msg.value;\n    }\n\n    /* After `deadline` anyone can call `execute()` function\n\n    uint256 public deadline = now + 0.4 minutes;\n\n    bool public completed;\n    bool public failed;\n\n    function execute() public {\n        require(!completed, \"Already completed\");\n        require(!failed, \"Already failed\");\n        require(now>=deadline, \"Have not reached deadline yet\");\n        if( address(this).balance >= threshold ){\n        exampleExternalContract.complete{value: address(this).balance}();\n        completed=true;\n        }else{\n        failed=true;\n        }\n    }\n\n    function withdraw(address payable staker) public {\n        require(failed, \"Cant withdraw until execute fails\");\n        uint256 amount = balances[staker];\n        balances[staker] = 0;\n        staker.transfer(amount);\n    }\n\n    // `timeLeft()` view function returns the time left before the deadline for the frontend\n\n    function timeLeft() public view returns (uint256) {\n        if(now>deadline) return 0;\n        return deadline - now;\n    }\n    */\n}",
  "sourcePath": "/home/luisca/blockchain/solidity-challenge/contracts/Staker.sol",
  "compiler": {
    "name": "solc",
    "version": "0.8.4+commit.c7e474f2.Emscripten.clang"
  },
  "schemaVersion": "3.4.3",
  "updatedAt": "2021-10-21T11:32:44.603Z",
  "networkType": "ethereum",
  "devdoc": {
    "kind": "dev",
    "methods": {},
    "version": 1
  },
  "userdoc": {
    "kind": "user",
    "methods": {},
    "version": 1
  }
}