{
  "contractName": "Staker",
  "abi": [
    {
      "anonymous": false,
      "inputs": [
        {
          "indexed": false,
          "internalType": "address",
          "name": "staker",
          "type": "address"
        },
        {
          "indexed": false,
          "internalType": "uint256",
          "name": "amount",
          "type": "uint256"
        }
      ],
      "name": "Stake",
      "type": "event"
    },
    {
      "inputs": [],
      "name": "RWT",
      "outputs": [
        {
          "internalType": "contract RewardToken",
          "name": "",
          "type": "address"
        }
      ],
      "stateMutability": "view",
      "type": "function"
    },
    {
      "inputs": [
        {
          "internalType": "address",
          "name": "",
          "type": "address"
        }
      ],
      "name": "balances",
      "outputs": [
        {
          "internalType": "uint256",
          "name": "",
          "type": "uint256"
        }
      ],
      "stateMutability": "view",
      "type": "function"
    },
    {
      "inputs": [],
      "name": "name",
      "outputs": [
        {
          "internalType": "string",
          "name": "",
          "type": "string"
        }
      ],
      "stateMutability": "view",
      "type": "function"
    },
    {
      "inputs": [],
      "name": "threshold",
      "outputs": [
        {
          "internalType": "uint256",
          "name": "",
          "type": "uint256"
        }
      ],
      "stateMutability": "view",
      "type": "function"
    },
    {
      "inputs": [
        {
          "internalType": "address",
          "name": "_address",
          "type": "address"
        }
      ],
      "name": "isStakeholder",
      "outputs": [
        {
          "internalType": "bool",
          "name": "",
          "type": "bool"
        },
        {
          "internalType": "uint256",
          "name": "",
          "type": "uint256"
        }
      ],
      "stateMutability": "view",
      "type": "function"
    },
    {
      "inputs": [
        {
          "internalType": "address",
          "name": "_stakeholder",
          "type": "address"
        }
      ],
      "name": "addStakeholder",
      "outputs": [],
      "stateMutability": "nonpayable",
      "type": "function"
    },
    {
      "inputs": [
        {
          "internalType": "address",
          "name": "_stakeholder",
          "type": "address"
        }
      ],
      "name": "removeStakeholder",
      "outputs": [],
      "stateMutability": "nonpayable",
      "type": "function"
    },
    {
      "inputs": [
        {
          "internalType": "address",
          "name": "_stakeholder",
          "type": "address"
        }
      ],
      "name": "stakeOf",
      "outputs": [
        {
          "internalType": "uint256",
          "name": "",
          "type": "uint256"
        }
      ],
      "stateMutability": "view",
      "type": "function"
    },
    {
      "inputs": [],
      "name": "totalStakes",
      "outputs": [
        {
          "internalType": "uint256",
          "name": "",
          "type": "uint256"
        }
      ],
      "stateMutability": "view",
      "type": "function"
    },
    {
      "inputs": [
        {
          "internalType": "address",
          "name": "_stakeholder",
          "type": "address"
        }
      ],
      "name": "rewardOf",
      "outputs": [
        {
          "internalType": "uint256",
          "name": "",
          "type": "uint256"
        }
      ],
      "stateMutability": "view",
      "type": "function"
    },
    {
      "inputs": [],
      "name": "totalRewards",
      "outputs": [
        {
          "internalType": "uint256",
          "name": "",
          "type": "uint256"
        }
      ],
      "stateMutability": "view",
      "type": "function"
    },
    {
      "inputs": [],
      "name": "stake",
      "outputs": [],
      "stateMutability": "payable",
      "type": "function"
    }
  ],
  "bytecode": "0x60806040526040518060400160405280601a81526020017f4c7569736361205374616b696e67204170706c69636174696f6e000000000000815250600090805190602001906200005192919062000066565b503480156200005f57600080fd5b506200017b565b828054620000749062000116565b90600052602060002090601f016020900481019282620000985760008555620000e4565b82601f10620000b357805160ff1916838001178555620000e4565b82800160010185558215620000e4579182015b82811115620000e3578251825591602001919060010190620000c6565b5b509050620000f39190620000f7565b5090565b5b8082111562000112576000816000905550600101620000f8565b5090565b600060028204905060018216806200012f57607f821691505b602082108114156200014657620001456200014c565b5b50919050565b7f4e487b7100000000000000000000000000000000000000000000000000000000600052602260045260246000fd5b610d21806200018b6000396000f3fe6080604052600436106100a75760003560e01c806342cde4e81161006457806342cde4e8146101c35780637cd16976146101ee578063bcb0c2d714610219578063bf9befb114610242578063e5c42fd11461026d578063ef037b9014610296576100a7565b806306fdde03146100ac5780630e15561a146100d75780631d62ebd91461010257806327e235e31461013f5780633a4b66f11461017c5780634262336014610186575b600080fd5b3480156100b857600080fd5b506100c16102d4565b6040516100ce9190610ab1565b60405180910390f35b3480156100e357600080fd5b506100ec610362565b6040516100f99190610ad3565b60405180910390f35b34801561010e57600080fd5b50610129600480360381019061012491906109a6565b61044d565b6040516101369190610ad3565b60405180910390f35b34801561014b57600080fd5b50610166600480360381019061016191906109a6565b610496565b6040516101739190610ad3565b60405180910390f35b6101846104ae565b005b34801561019257600080fd5b506101ad60048036038101906101a891906109a6565b61053f565b6040516101ba9190610ad3565b60405180910390f35b3480156101cf57600080fd5b506101d8610588565b6040516101e59190610ad3565b60405180910390f35b3480156101fa57600080fd5b50610203610594565b6040516102109190610a96565b60405180910390f35b34801561022557600080fd5b50610240600480360381019061023b91906109a6565b6105ba565b005b34801561024e57600080fd5b5061025761073b565b6040516102649190610ad3565b60405180910390f35b34801561027957600080fd5b50610294600480360381019061028f91906109a6565b610826565b005b3480156102a257600080fd5b506102bd60048036038101906102b891906109a6565b6108a1565b6040516102cb929190610a6d565b60405180910390f35b600080546102e190610c33565b80601f016020809104026020016040519081016040528092919081815260200182805461030d90610c33565b801561035a5780601f1061032f5761010080835404028352916020019161035a565b820191906000526020600020905b81548152906001019060200180831161033d57829003601f168201915b505050505081565b6000806000905060005b6003805490508110156104455761042f60056000600384815481106103ba577f4e487b7100000000000000000000000000000000000000000000000000000000600052603260045260246000fd5b9060005260206000200160009054906101000a900473ffffffffffffffffffffffffffffffffffffffff1673ffffffffffffffffffffffffffffffffffffffff1673ffffffffffffffffffffffffffffffffffffffff168152602001908152602001600020548361097b90919063ffffffff16565b915060018161043e9190610b0a565b905061036c565b508091505090565b6000600560008373ffffffffffffffffffffffffffffffffffffffff1673ffffffffffffffffffffffffffffffffffffffff168152602001908152602001600020549050919050565b60026020528060005260406000206000915090505481565b7febedb8b3c678666e7f36970bc8f57abf6d8fa2e828c0da91ea5b75bf68ed101a33346040516104df929190610a44565b60405180910390a134600260003373ffffffffffffffffffffffffffffffffffffffff1673ffffffffffffffffffffffffffffffffffffffff16815260200190815260200160002060008282546105369190610b0a565b92505081905550565b6000600460008373ffffffffffffffffffffffffffffffffffffffff1673ffffffffffffffffffffffffffffffffffffffff168152602001908152602001600020549050919050565b670de0b6b3a764000081565b600160009054906101000a900473ffffffffffffffffffffffffffffffffffffffff1681565b6000806105c6836108a1565b91509150811561073657600360016003805490506105e49190610b60565b8154811061061b577f4e487b7100000000000000000000000000000000000000000000000000000000600052603260045260246000fd5b9060005260206000200160009054906101000a900473ffffffffffffffffffffffffffffffffffffffff1660038281548110610680577f4e487b7100000000000000000000000000000000000000000000000000000000600052603260045260246000fd5b9060005260206000200160006101000a81548173ffffffffffffffffffffffffffffffffffffffff021916908373ffffffffffffffffffffffffffffffffffffffff1602179055506003805480610700577f4e487b7100000000000000000000000000000000000000000000000000000000600052603160045260246000fd5b6001900381819060005260206000200160006101000a81549073ffffffffffffffffffffffffffffffffffffffff021916905590555b505050565b6000806000905060005b60038054905081101561081e576108086004600060038481548110610793577f4e487b7100000000000000000000000000000000000000000000000000000000600052603260045260246000fd5b9060005260206000200160009054906101000a900473ffffffffffffffffffffffffffffffffffffffff1673ffffffffffffffffffffffffffffffffffffffff1673ffffffffffffffffffffffffffffffffffffffff168152602001908152602001600020548361097b90919063ffffffff16565b91506001816108179190610b0a565b9050610745565b508091505090565b6000610831826108a1565b5090508061089d576003829080600181540180825580915050600190039060005260206000200160009091909190916101000a81548173ffffffffffffffffffffffffffffffffffffffff021916908373ffffffffffffffffffffffffffffffffffffffff1602179055505b5050565b60008060005b60038054905081101561096d57600381815481106108ee577f4e487b7100000000000000000000000000000000000000000000000000000000600052603260045260246000fd5b9060005260206000200160009054906101000a900473ffffffffffffffffffffffffffffffffffffffff1673ffffffffffffffffffffffffffffffffffffffff168473ffffffffffffffffffffffffffffffffffffffff161415610959576001819250925050610976565b6001816109669190610b0a565b90506108a7565b50600080915091505b915091565b600081836109899190610b0a565b905092915050565b6000813590506109a081610cd4565b92915050565b6000602082840312156109b857600080fd5b60006109c684828501610991565b91505092915050565b6109d881610b94565b82525050565b6109e781610ba6565b82525050565b6109f681610bdc565b82525050565b6000610a0782610aee565b610a118185610af9565b9350610a21818560208601610c00565b610a2a81610cc3565b840191505092915050565b610a3e81610bd2565b82525050565b6000604082019050610a5960008301856109cf565b610a666020830184610a35565b9392505050565b6000604082019050610a8260008301856109de565b610a8f6020830184610a35565b9392505050565b6000602082019050610aab60008301846109ed565b92915050565b60006020820190508181036000830152610acb81846109fc565b905092915050565b6000602082019050610ae86000830184610a35565b92915050565b600081519050919050565b600082825260208201905092915050565b6000610b1582610bd2565b9150610b2083610bd2565b9250827fffffffffffffffffffffffffffffffffffffffffffffffffffffffffffffffff03821115610b5557610b54610c65565b5b828201905092915050565b6000610b6b82610bd2565b9150610b7683610bd2565b925082821015610b8957610b88610c65565b5b828203905092915050565b6000610b9f82610bb2565b9050919050565b60008115159050919050565b600073ffffffffffffffffffffffffffffffffffffffff82169050919050565b6000819050919050565b6000610be782610bee565b9050919050565b6000610bf982610bb2565b9050919050565b60005b83811015610c1e578082015181840152602081019050610c03565b83811115610c2d576000848401525b50505050565b60006002820490506001821680610c4b57607f821691505b60208210811415610c5f57610c5e610c94565b5b50919050565b7f4e487b7100000000000000000000000000000000000000000000000000000000600052601160045260246000fd5b7f4e487b7100000000000000000000000000000000000000000000000000000000600052602260045260246000fd5b6000601f19601f8301169050919050565b610cdd81610b94565b8114610ce857600080fd5b5056fea26469706673582212208a2e271b8cd3f747e31c0cb97c273fe986aa93cb99dc0ddbf353d018d903c75c64736f6c63430008040033",
  "immutableReferences": {},
  "source": "// contracts/Staker.sol\n/* SPDX-License-Identifier: GPL-3.0\nAuthored by Luis Ignacio Callero\nWith great help from \n    Greg DappUniversity https://www.youtube.com/watch?v=sCE-fQJAVQ4\n    Austin Griffith https://github.com/scaffold-eth/scaffold-eth/blob/staking-app/packages/hardhat/contracts/Staker.sol\n    https://medium.com/@tnhollan/how-to-implement-staking-in-solidity-cdb1d0506ef6\n*/\n\npragma solidity ^0.8.4;\n\nimport \"@openzeppelin/contracts/utils/math/SafeMath.sol\";\n// import \"https://github.com/OpenZeppelin/openzeppelin-contracts/blob/master/contracts/utils/math/SafeMath.sol\"; // to be used with remix\nimport \"./RewardToken.sol\";\n\ncontract Staker {\n    string public name = \"Luisca Staking Application\";\n    RewardToken public RWT;\n    using SafeMath for uint256;\n    uint256 public constant threshold = 1 ether;\n    mapping ( address => uint256 ) public balances;\n    event Stake(address staker, uint256 amount);\n    /**\n     * @notice We usually require to know who are all the stakeholders.\n     */\n    address[] internal stakeholders;\n    \n    /**\n    * @notice A method to check if an address is a stakeholder.\n    * @param _address The address to verify.\n    * @return bool, uint256 Whether the address is a stakeholder,\n    * and if so its position in the stakeholders array.\n    */\n   function isStakeholder(address _address)\n       public\n       view\n       returns(bool, uint256)\n   {\n       for (uint256 s = 0; s < stakeholders.length; s += 1){\n           if (_address == stakeholders[s]) return (true, s);\n       }\n       return (false, 0);\n   }   /**\n    * @notice A method to add a stakeholder.\n    * @param _stakeholder The stakeholder to add.\n    */\n   function addStakeholder(address _stakeholder)\n       public\n   {\n       (bool _isStakeholder, ) = isStakeholder(_stakeholder);\n       if(!_isStakeholder) stakeholders.push(_stakeholder);\n   }   /**\n    * @notice A method to remove a stakeholder.\n    * @param _stakeholder The stakeholder to remove.\n    */\n   function removeStakeholder(address _stakeholder)\n       public\n   {\n       (bool _isStakeholder, uint256 s) = isStakeholder(_stakeholder);\n       if(_isStakeholder){\n           stakeholders[s] = stakeholders[stakeholders.length - 1];\n           stakeholders.pop();\n       }\n   }\n   \n   \n   \n   /**\n    * @notice The stakes for each stakeholder.\n    */\n   mapping(address => uint256) internal stakes;\n   \n   \n   /**\n    * @notice A method to retrieve the stake for a stakeholder.\n    * @param _stakeholder The stakeholder to retrieve the stake for.\n    * @return uint256 The amount of wei staked.\n    */\n   function stakeOf(address _stakeholder)\n       public\n       view\n       returns(uint256)\n   {\n       return stakes[_stakeholder];\n   }   /**\n    * @notice A method to the aggregated stakes from all stakeholders.\n    * @return uint256 The aggregated stakes from all stakeholders.\n    */\n   function totalStakes()\n       public\n       view\n       returns(uint256)\n   {\n       uint256 _totalStakes = 0;\n       for (uint256 s = 0; s < stakeholders.length; s += 1){\n           _totalStakes = _totalStakes.add(stakes[stakeholders[s]]);\n       }\n       return _totalStakes;\n   }\n   \n   \n\n    /**\n    * @notice The accumulated rewards for each stakeholder.\n    */\n   mapping(address => uint256) internal rewards;\n  \n   /**\n    * @notice A method to allow a stakeholder to check his rewards.\n    * @param _stakeholder The stakeholder to check rewards for.\n    */\n   function rewardOf(address _stakeholder)\n       public\n       view\n       returns(uint256)\n   {\n       return rewards[_stakeholder];\n   }   /**\n    * @notice A method to the aggregated rewards from all stakeholders.\n    * @return uint256 The aggregated rewards from all stakeholders.\n    */\n   function totalRewards()\n       public\n       view\n       returns(uint256)\n   {\n       uint256 _totalRewards = 0;\n       for (uint256 s = 0; s < stakeholders.length; s += 1){\n           _totalRewards = _totalRewards.add(rewards[stakeholders[s]]);\n       }\n       return _totalRewards;\n   }\n   \n   \n    function stake() public payable {\n        emit Stake(msg.sender, msg.value);\n        balances[msg.sender] += msg.value;\n    }\n\n    /* After `deadline` anyone can call `execute()` function\n\n    uint256 public deadline = now + 0.4 minutes;\n\n    bool public completed;\n    bool public failed;\n\n    function execute() public {\n        require(!completed, \"Already completed\");\n        require(!failed, \"Already failed\");\n        require(now>=deadline, \"Have not reached deadline yet\");\n        if( address(this).balance >= threshold ){\n        exampleExternalContract.complete{value: address(this).balance}();\n        completed=true;\n        }else{\n        failed=true;\n        }\n    }\n\n    function withdraw(address payable staker) public {\n        require(failed, \"Cant withdraw until execute fails\");\n        uint256 amount = balances[staker];\n        balances[staker] = 0;\n        staker.transfer(amount);\n    }\n\n    // `timeLeft()` view function returns the time left before the deadline for the frontend\n\n    function timeLeft() public view returns (uint256) {\n        if(now>deadline) return 0;\n        return deadline - now;\n    }\n    */\n}",
  "sourcePath": "/home/luisca/blockchain/solidity-challenge/contracts/Staker.sol",
  "compiler": {
    "name": "solc",
    "version": "0.8.4+commit.c7e474f2.Emscripten.clang"
  },
  "schemaVersion": "3.4.3",
  "updatedAt": "2021-10-25T12:47:04.909Z",
  "devdoc": {
    "kind": "dev",
    "methods": {
      "addStakeholder(address)": {
        "params": {
          "_stakeholder": "The stakeholder to add."
        }
      },
      "isStakeholder(address)": {
        "params": {
          "_address": "The address to verify."
        },
        "returns": {
          "_0": "bool, uint256 Whether the address is a stakeholder, and if so its position in the stakeholders array."
        }
      },
      "removeStakeholder(address)": {
        "params": {
          "_stakeholder": "The stakeholder to remove."
        }
      },
      "rewardOf(address)": {
        "params": {
          "_stakeholder": "The stakeholder to check rewards for."
        }
      },
      "stakeOf(address)": {
        "params": {
          "_stakeholder": "The stakeholder to retrieve the stake for."
        },
        "returns": {
          "_0": "uint256 The amount of wei staked."
        }
      },
      "totalRewards()": {
        "returns": {
          "_0": "uint256 The aggregated rewards from all stakeholders."
        }
      },
      "totalStakes()": {
        "returns": {
          "_0": "uint256 The aggregated stakes from all stakeholders."
        }
      }
    },
    "version": 1
  },
  "userdoc": {
    "kind": "user",
    "methods": {
      "addStakeholder(address)": {
        "notice": "A method to add a stakeholder."
      },
      "isStakeholder(address)": {
        "notice": "A method to check if an address is a stakeholder."
      },
      "removeStakeholder(address)": {
        "notice": "A method to remove a stakeholder."
      },
      "rewardOf(address)": {
        "notice": "A method to allow a stakeholder to check his rewards."
      },
      "stakeOf(address)": {
        "notice": "A method to retrieve the stake for a stakeholder."
      },
      "totalRewards()": {
        "notice": "A method to the aggregated rewards from all stakeholders."
      },
      "totalStakes()": {
        "notice": "A method to the aggregated stakes from all stakeholders."
      }
    },
    "version": 1
  }
}