{
  "contractName": "Staker",
  "abi": [
    {
      "inputs": [],
      "name": "RWT",
      "outputs": [
        {
          "internalType": "contract RewardToken",
          "name": "",
          "type": "address"
        }
      ],
      "stateMutability": "view",
      "type": "function",
      "constant": true
    },
    {
      "inputs": [],
      "name": "name",
      "outputs": [
        {
          "internalType": "string",
          "name": "",
          "type": "string"
        }
      ],
      "stateMutability": "view",
      "type": "function",
      "constant": true
    }
  ],
  "bytecode": "0x60806040526040518060400160405280601a81526020017f4c7569736361205374616b696e67204170706c69636174696f6e0000000000008152506000908051906020019061004f929190610062565b5034801561005c57600080fd5b50610166565b82805461006e90610105565b90600052602060002090601f01602090048101928261009057600085556100d7565b82601f106100a957805160ff19168380011785556100d7565b828001600101855582156100d7579182015b828111156100d65782518255916020019190600101906100bb565b5b5090506100e491906100e8565b5090565b5b808211156101015760008160009055506001016100e9565b5090565b6000600282049050600182168061011d57607f821691505b6020821081141561013157610130610137565b5b50919050565b7f4e487b7100000000000000000000000000000000000000000000000000000000600052602260045260246000fd5b6102eb806101756000396000f3fe608060405234801561001057600080fd5b50600436106100365760003560e01c806306fdde031461003b5780637cd1697614610059575b600080fd5b610043610077565b604051610050919061018e565b60405180910390f35b610061610105565b60405161006e9190610173565b60405180910390f35b6000805461008490610243565b80601f01602080910402602001604051908101604052809291908181526020018280546100b090610243565b80156100fd5780601f106100d2576101008083540402835291602001916100fd565b820191906000526020600020905b8154815290600101906020018083116100e057829003601f168201915b505050505081565b600160009054906101000a900473ffffffffffffffffffffffffffffffffffffffff1681565b610134816101ec565b82525050565b6000610145826101b0565b61014f81856101bb565b935061015f818560208601610210565b610168816102a4565b840191505092915050565b6000602082019050610188600083018461012b565b92915050565b600060208201905081810360008301526101a8818461013a565b905092915050565b600081519050919050565b600082825260208201905092915050565b600073ffffffffffffffffffffffffffffffffffffffff82169050919050565b60006101f7826101fe565b9050919050565b6000610209826101cc565b9050919050565b60005b8381101561022e578082015181840152602081019050610213565b8381111561023d576000848401525b50505050565b6000600282049050600182168061025b57607f821691505b6020821081141561026f5761026e610275565b5b50919050565b7f4e487b7100000000000000000000000000000000000000000000000000000000600052602260045260246000fd5b6000601f19601f830116905091905056fea2646970667358221220303c563523f418b1d7888c93f6a599789a60b03496e9673e0a149c4af139152264736f6c63430008040033",
  "immutableReferences": {},
  "source": "// contracts/Staker.sol\n/* SPDX-License-Identifier: GPL-3.0\nAuthored by Luis Ignacio Callero\n*/\n\npragma solidity ^0.8.4;\n\nimport \"./RewardToken.sol\";\n\ncontract Staker {\n    string public name = \"Luisca Staking Application\";\n    RewardToken public RWT;\n\n}",
  "sourcePath": "/home/luisca/blockchain/solidity-challenge/contracts/Staker.sol",
  "compiler": {
    "name": "solc",
    "version": "0.8.4+commit.c7e474f2.Emscripten.clang"
  },
  "schemaVersion": "3.4.3",
  "updatedAt": "2021-10-20T12:26:38.677Z",
  "networkType": "ethereum",
  "devdoc": {
    "kind": "dev",
    "methods": {},
    "version": 1
  },
  "userdoc": {
    "kind": "user",
    "methods": {},
    "version": 1
  }
}