{
  "contractName": "Staker2",
  "abi": [
    {
      "inputs": [
        {
          "internalType": "address",
          "name": "_rewardToken",
          "type": "address"
        }
      ],
      "stateMutability": "nonpayable",
      "type": "constructor"
    },
    {
      "anonymous": false,
      "inputs": [
        {
          "indexed": false,
          "internalType": "uint256",
          "name": "amount",
          "type": "uint256"
        },
        {
          "indexed": false,
          "internalType": "uint256",
          "name": "lengthInDays",
          "type": "uint256"
        }
      ],
      "name": "AddRewards",
      "type": "event"
    },
    {
      "anonymous": false,
      "inputs": [
        {
          "indexed": true,
          "internalType": "address",
          "name": "user",
          "type": "address"
        },
        {
          "indexed": false,
          "internalType": "uint256",
          "name": "amount",
          "type": "uint256"
        }
      ],
      "name": "ClaimReward",
      "type": "event"
    },
    {
      "anonymous": false,
      "inputs": [
        {
          "indexed": true,
          "internalType": "address",
          "name": "user",
          "type": "address"
        },
        {
          "indexed": false,
          "internalType": "uint256",
          "name": "amount",
          "type": "uint256"
        }
      ],
      "name": "Deposit",
      "type": "event"
    },
    {
      "anonymous": false,
      "inputs": [
        {
          "indexed": true,
          "internalType": "address",
          "name": "previousOwner",
          "type": "address"
        },
        {
          "indexed": true,
          "internalType": "address",
          "name": "newOwner",
          "type": "address"
        }
      ],
      "name": "OwnershipTransferred",
      "type": "event"
    },
    {
      "anonymous": false,
      "inputs": [
        {
          "indexed": false,
          "internalType": "uint256",
          "name": "amount",
          "type": "uint256"
        }
      ],
      "name": "Skim",
      "type": "event"
    },
    {
      "anonymous": false,
      "inputs": [
        {
          "indexed": true,
          "internalType": "address",
          "name": "user",
          "type": "address"
        },
        {
          "indexed": false,
          "internalType": "uint256",
          "name": "amount",
          "type": "uint256"
        }
      ],
      "name": "Withdraw",
      "type": "event"
    },
    {
      "inputs": [],
      "name": "accumulatedRewardPerShare",
      "outputs": [
        {
          "internalType": "uint256",
          "name": "",
          "type": "uint256"
        }
      ],
      "stateMutability": "view",
      "type": "function"
    },
    {
      "inputs": [],
      "name": "lastRewardTimestamp",
      "outputs": [
        {
          "internalType": "uint256",
          "name": "",
          "type": "uint256"
        }
      ],
      "stateMutability": "view",
      "type": "function"
    },
    {
      "inputs": [],
      "name": "name",
      "outputs": [
        {
          "internalType": "string",
          "name": "",
          "type": "string"
        }
      ],
      "stateMutability": "view",
      "type": "function"
    },
    {
      "inputs": [],
      "name": "owner",
      "outputs": [
        {
          "internalType": "address",
          "name": "",
          "type": "address"
        }
      ],
      "stateMutability": "view",
      "type": "function"
    },
    {
      "inputs": [],
      "name": "renounceOwnership",
      "outputs": [],
      "stateMutability": "nonpayable",
      "type": "function"
    },
    {
      "inputs": [],
      "name": "rewardPerSecond",
      "outputs": [
        {
          "internalType": "uint256",
          "name": "",
          "type": "uint256"
        }
      ],
      "stateMutability": "view",
      "type": "function"
    },
    {
      "inputs": [],
      "name": "rewardPeriodEndTimestamp",
      "outputs": [
        {
          "internalType": "uint256",
          "name": "",
          "type": "uint256"
        }
      ],
      "stateMutability": "view",
      "type": "function"
    },
    {
      "inputs": [],
      "name": "rewardToken",
      "outputs": [
        {
          "internalType": "contract IERC20",
          "name": "",
          "type": "address"
        }
      ],
      "stateMutability": "view",
      "type": "function"
    },
    {
      "inputs": [],
      "name": "totalStaked",
      "outputs": [
        {
          "internalType": "uint256",
          "name": "",
          "type": "uint256"
        }
      ],
      "stateMutability": "view",
      "type": "function"
    },
    {
      "inputs": [
        {
          "internalType": "address",
          "name": "newOwner",
          "type": "address"
        }
      ],
      "name": "transferOwnership",
      "outputs": [],
      "stateMutability": "nonpayable",
      "type": "function"
    },
    {
      "inputs": [
        {
          "internalType": "uint256",
          "name": "_rewardsAmount",
          "type": "uint256"
        },
        {
          "internalType": "uint256",
          "name": "_lengthInDays",
          "type": "uint256"
        }
      ],
      "name": "addRewards",
      "outputs": [],
      "stateMutability": "nonpayable",
      "type": "function"
    },
    {
      "inputs": [],
      "name": "updateRewards",
      "outputs": [],
      "stateMutability": "nonpayable",
      "type": "function"
    },
    {
      "inputs": [
        {
          "internalType": "uint256",
          "name": "_amount",
          "type": "uint256"
        }
      ],
      "name": "deposit",
      "outputs": [],
      "stateMutability": "nonpayable",
      "type": "function"
    },
    {
      "inputs": [
        {
          "internalType": "uint256",
          "name": "_amount",
          "type": "uint256"
        }
      ],
      "name": "withdraw",
      "outputs": [],
      "stateMutability": "nonpayable",
      "type": "function"
    },
    {
      "inputs": [],
      "name": "claim",
      "outputs": [],
      "stateMutability": "nonpayable",
      "type": "function"
    },
    {
      "inputs": [],
      "name": "skim",
      "outputs": [],
      "stateMutability": "nonpayable",
      "type": "function"
    },
    {
      "inputs": [
        {
          "internalType": "address",
          "name": "_user",
          "type": "address"
        }
      ],
      "name": "pendingRewards",
      "outputs": [
        {
          "internalType": "uint256",
          "name": "",
          "type": "uint256"
        }
      ],
      "stateMutability": "view",
      "type": "function"
    },
    {
      "inputs": [],
      "name": "getFrontendView",
      "outputs": [
        {
          "internalType": "uint256",
          "name": "_rewardPerSecond",
          "type": "uint256"
        },
        {
          "internalType": "uint256",
          "name": "_secondsLeft",
          "type": "uint256"
        },
        {
          "internalType": "uint256",
          "name": "_deposited",
          "type": "uint256"
        },
        {
          "internalType": "uint256",
          "name": "_pending",
          "type": "uint256"
        }
      ],
      "stateMutability": "view",
      "type": "function"
    }
  ],
  "bytecode": "0x60806040526040518060400160405280601a81526020017f4c7569736361205374616b696e67204170706c69636174696f6e0000000000008152506001908051906020019062000051929190620001b9565b503480156200005f57600080fd5b506040516200258838038062002588833981810160405281019062000085919062000280565b620000a562000099620000ed60201b60201c565b620000f560201b60201c565b80600360006101000a81548173ffffffffffffffffffffffffffffffffffffffff021916908373ffffffffffffffffffffffffffffffffffffffff160217905550506200035f565b600033905090565b60008060009054906101000a900473ffffffffffffffffffffffffffffffffffffffff169050816000806101000a81548173ffffffffffffffffffffffffffffffffffffffff021916908373ffffffffffffffffffffffffffffffffffffffff1602179055508173ffffffffffffffffffffffffffffffffffffffff168173ffffffffffffffffffffffffffffffffffffffff167f8be0079c531659141344cd1fd0a4f28419497f9722a3daafe3b4186f6b6457e060405160405180910390a35050565b828054620001c790620002e0565b90600052602060002090601f016020900481019282620001eb576000855562000237565b82601f106200020657805160ff191683800117855562000237565b8280016001018555821562000237579182015b828111156200023657825182559160200191906001019062000219565b5b5090506200024691906200024a565b5090565b5b80821115620002655760008160009055506001016200024b565b5090565b6000815190506200027a8162000345565b92915050565b6000602082840312156200029357600080fd5b6000620002a38482850162000269565b91505092915050565b6000620002b982620002c0565b9050919050565b600073ffffffffffffffffffffffffffffffffffffffff82169050919050565b60006002820490506001821680620002f957607f821691505b6020821081141562000310576200030f62000316565b5b50919050565b7f4e487b7100000000000000000000000000000000000000000000000000000000600052602260045260246000fd5b6200035081620002ac565b81146200035c57600080fd5b50565b612219806200036f6000396000f3fe608060405234801561001057600080fd5b50600436106101165760003560e01c80638da5cb5b116100a2578063cfc2b32011610071578063cfc2b32014610262578063f2fde38b14610280578063f7c618c11461029c578063f8077fae146102ba578063fc41aa09146102d857610116565b80638da5cb5b146101e95780638f10369a14610207578063abed2e7f14610225578063b6b55f251461024657610116565b806336d42195116100e957806336d421951461018f5780633e158b0c146101ad5780634e71d92d146101b7578063715018a6146101c1578063817b1cd2146101cb57610116565b806306fdde031461011b5780631dd19cb4146101395780632e1a7d4d1461014357806331d7a2621461015f575b600080fd5b6101236102f4565b6040516101309190611b99565b60405180910390f35b610141610382565b005b61015d600480360381019061015891906118f7565b6105fa565b005b610179600480360381019061017491906118a5565b6109ef565b6040516101869190611cbb565b60405180910390f35b610197610b55565b6040516101a49190611cbb565b60405180910390f35b6101b5610b5b565b005b6101bf610c40565b005b6101c9610e8b565b005b6101d3610f13565b6040516101e09190611cbb565b60405180910390f35b6101f1610f19565b6040516101fe9190611b03565b60405180910390f35b61020f610f42565b60405161021c9190611cbb565b60405180910390f35b61022d610f48565b60405161023d9493929190611cff565b60405180910390f35b610260600480360381019061025b91906118f7565b610fdf565b005b61026a61139d565b6040516102779190611cbb565b60405180910390f35b61029a600480360381019061029591906118a5565b6113a3565b005b6102a461149b565b6040516102b19190611b7e565b60405180910390f35b6102c26114c1565b6040516102cf9190611cbb565b60405180910390f35b6102f260048036038101906102ed9190611949565b6114c7565b005b6001805461030190611f14565b80601f016020809104026020016040519081016040528092919081815260200182805461032d90611f14565b801561037a5780601f1061034f5761010080835404028352916020019161037a565b820191906000526020600020905b81548152906001019060200180831161035d57829003601f168201915b505050505081565b61038a61172d565b73ffffffffffffffffffffffffffffffffffffffff166103a8610f19565b73ffffffffffffffffffffffffffffffffffffffff16146103fe576040517f08c379a00000000000000000000000000000000000000000000000000000000081526004016103f590611c5b565b60405180910390fd5b6000600360009054906101000a900473ffffffffffffffffffffffffffffffffffffffff1673ffffffffffffffffffffffffffffffffffffffff166370a08231306040518263ffffffff1660e01b815260040161045b9190611b03565b60206040518083038186803b15801561047357600080fd5b505afa158015610487573d6000803e3d6000fd5b505050506040513d601f19601f820116820180604052508101906104ab9190611920565b90506004548111156105f75760006104ce6004548361173590919063ffffffff16565b9050600360009054906101000a900473ffffffffffffffffffffffffffffffffffffffff1673ffffffffffffffffffffffffffffffffffffffff1663a9059cbb33836040518363ffffffff1660e01b815260040161052d929190611b55565b602060405180830381600087803b15801561054757600080fd5b505af115801561055b573d6000803e3d6000fd5b505050506040513d601f19601f8201168201806040525081019061057f91906118ce565b6105be576040517f08c379a00000000000000000000000000000000000000000000000000000000081526004016105b590611c9b565b60405180910390fd5b7f09639ca13db231feb5ad02aa7a3e9d59549523814fbf88e0f7b51412c7d48251816040516105ed9190611cbb565b60405180910390a1505b50565b6000600260003373ffffffffffffffffffffffffffffffffffffffff1673ffffffffffffffffffffffffffffffffffffffff16815260200190815260200160002090508181600001541015610684576040517f08c379a000000000000000000000000000000000000000000000000000000000815260040161067b90611c7b565b60405180910390fd5b61068c610b5b565b60006106e982600101546106db629896806106cd64e8d4a510006106bf600854896000015461174b90919063ffffffff16565b61176190919063ffffffff16565b61176190919063ffffffff16565b61173590919063ffffffff16565b9050600360009054906101000a900473ffffffffffffffffffffffffffffffffffffffff1673ffffffffffffffffffffffffffffffffffffffff1663a9059cbb33836040518363ffffffff1660e01b8152600401610748929190611b55565b602060405180830381600087803b15801561076257600080fd5b505af1158015610776573d6000803e3d6000fd5b505050506040513d601f19601f8201168201806040525081019061079a91906118ce565b6107d9576040517f08c379a00000000000000000000000000000000000000000000000000000000081526004016107d090611c1b565b60405180910390fd5b3373ffffffffffffffffffffffffffffffffffffffff167fba8de60c3403ec381d1d484652ea1980e3c3e56359195c92525bff4ce47ad98e8260405161081f9190611cbb565b60405180910390a261083e83836000015461173590919063ffffffff16565b826000018190555061085b8360045461173590919063ffffffff16565b6004819055506108a66298968061089864e8d4a5100061088a600854876000015461174b90919063ffffffff16565b61176190919063ffffffff16565b61176190919063ffffffff16565b8260010181905550600360009054906101000a900473ffffffffffffffffffffffffffffffffffffffff1673ffffffffffffffffffffffffffffffffffffffff1663a9059cbb33856040518363ffffffff1660e01b815260040161090b929190611b55565b602060405180830381600087803b15801561092557600080fd5b505af1158015610939573d6000803e3d6000fd5b505050506040513d601f19601f8201168201806040525081019061095d91906118ce565b61099c576040517f08c379a000000000000000000000000000000000000000000000000000000000815260040161099390611bbb565b60405180910390fd5b3373ffffffffffffffffffffffffffffffffffffffff167f884edad9ce6fa2440d8a54cc123490eb96d2768479d49ff9c7366125a9424364846040516109e29190611cbb565b60405180910390a2505050565b600080600260008473ffffffffffffffffffffffffffffffffffffffff1673ffffffffffffffffffffffffffffffffffffffff16815260200190815260200160002090506000600854905060075442118015610a4f575060055460075411155b8015610a5e5750600060045414155b15610af3576000600554421115610a79576005549050610a7d565b4290505b6000610a946007548361173590919063ffffffff16565b90506000610aad6006548361174b90919063ffffffff16565b9050610aed610ade600454610ad064e8d4a510008561174b90919063ffffffff16565b61176190919063ffffffff16565b8561177790919063ffffffff16565b93505050505b610b4c8260010154610b3e62989680610b3064e8d4a51000610b2287896000015461174b90919063ffffffff16565b61176190919063ffffffff16565b61176190919063ffffffff16565b61173590919063ffffffff16565b92505050919050565b60085481565b6007544211610b6957610c3e565b60006004541480610b7d5750600554600754115b15610b8e5742600781905550610c3e565b6000600554421115610ba4576005549050610ba8565b4290505b6000610bbf6007548361173590919063ffffffff16565b90506000610bd86006548361174b90919063ffffffff16565b9050610c1a610c09600454610bfb64e8d4a510008561174b90919063ffffffff16565b61176190919063ffffffff16565b60085461177790919063ffffffff16565b60088190555042600781905550600554421115610c3a5760006006819055505b5050505b565b6000600260003373ffffffffffffffffffffffffffffffffffffffff1673ffffffffffffffffffffffffffffffffffffffff1681526020019081526020016000209050600081600001541415610c965750610e89565b610c9e610b5b565b6000610cfb8260010154610ced62989680610cdf64e8d4a51000610cd1600854896000015461174b90919063ffffffff16565b61176190919063ffffffff16565b61176190919063ffffffff16565b61173590919063ffffffff16565b9050600360009054906101000a900473ffffffffffffffffffffffffffffffffffffffff1673ffffffffffffffffffffffffffffffffffffffff1663a9059cbb33836040518363ffffffff1660e01b8152600401610d5a929190611b55565b602060405180830381600087803b158015610d7457600080fd5b505af1158015610d88573d6000803e3d6000fd5b505050506040513d601f19601f82011682018060405250810190610dac91906118ce565b610deb576040517f08c379a0000000000000000000000000000000000000000000000000000000008152600401610de290611c9b565b60405180910390fd5b3373ffffffffffffffffffffffffffffffffffffffff167fba8de60c3403ec381d1d484652ea1980e3c3e56359195c92525bff4ce47ad98e82604051610e319190611cbb565b60405180910390a2610e7e62989680610e7064e8d4a51000610e62600854876000015461174b90919063ffffffff16565b61176190919063ffffffff16565b61176190919063ffffffff16565b826001018190555050505b565b610e9361172d565b73ffffffffffffffffffffffffffffffffffffffff16610eb1610f19565b73ffffffffffffffffffffffffffffffffffffffff1614610f07576040517f08c379a0000000000000000000000000000000000000000000000000000000008152600401610efe90611c5b565b60405180910390fd5b610f11600061178d565b565b60045481565b60008060009054906101000a900473ffffffffffffffffffffffffffffffffffffffff16905090565b60065481565b6000806000806005544211610f8957610f6c4260055461173590919063ffffffff16565b9250610f866298968060065461176190919063ffffffff16565b93505b600260003373ffffffffffffffffffffffffffffffffffffffff1673ffffffffffffffffffffffffffffffffffffffff168152602001908152602001600020600001549150610fd7336109ef565b905090919293565b6000600260003373ffffffffffffffffffffffffffffffffffffffff1673ffffffffffffffffffffffffffffffffffffffff168152602001908152602001600020905061102a610b5b565b6000816000015411156111d457600061109482600101546110866298968061107864e8d4a5100061106a600854896000015461174b90919063ffffffff16565b61176190919063ffffffff16565b61176190919063ffffffff16565b61173590919063ffffffff16565b9050600360009054906101000a900473ffffffffffffffffffffffffffffffffffffffff1673ffffffffffffffffffffffffffffffffffffffff1663a9059cbb33836040518363ffffffff1660e01b81526004016110f3929190611b55565b602060405180830381600087803b15801561110d57600080fd5b505af1158015611121573d6000803e3d6000fd5b505050506040513d601f19601f8201168201806040525081019061114591906118ce565b611184576040517f08c379a000000000000000000000000000000000000000000000000000000000815260040161117b90611c9b565b60405180910390fd5b3373ffffffffffffffffffffffffffffffffffffffff167fba8de60c3403ec381d1d484652ea1980e3c3e56359195c92525bff4ce47ad98e826040516111ca9190611cbb565b60405180910390a2505b6111eb82826000015461177790919063ffffffff16565b81600001819055506112088260045461177790919063ffffffff16565b6004819055506112536298968061124564e8d4a51000611237600854866000015461174b90919063ffffffff16565b61176190919063ffffffff16565b61176190919063ffffffff16565b8160010181905550600360009054906101000a900473ffffffffffffffffffffffffffffffffffffffff1673ffffffffffffffffffffffffffffffffffffffff166323b872dd3330856040518463ffffffff1660e01b81526004016112ba93929190611b1e565b602060405180830381600087803b1580156112d457600080fd5b505af11580156112e8573d6000803e3d6000fd5b505050506040513d601f19601f8201168201806040525081019061130c91906118ce565b61134b576040517f08c379a000000000000000000000000000000000000000000000000000000000815260040161134290611bfb565b60405180910390fd5b3373ffffffffffffffffffffffffffffffffffffffff167fe1fffcc4923d04b559f4d29a8bfc6cda04eb5b0d3c460751c2402c5c5cc9109c836040516113919190611cbb565b60405180910390a25050565b60055481565b6113ab61172d565b73ffffffffffffffffffffffffffffffffffffffff166113c9610f19565b73ffffffffffffffffffffffffffffffffffffffff161461141f576040517f08c379a000000000000000000000000000000000000000000000000000000000815260040161141690611c5b565b60405180910390fd5b600073ffffffffffffffffffffffffffffffffffffffff168173ffffffffffffffffffffffffffffffffffffffff16141561148f576040517f08c379a000000000000000000000000000000000000000000000000000000000815260040161148690611bdb565b60405180910390fd5b6114988161178d565b50565b600360009054906101000a900473ffffffffffffffffffffffffffffffffffffffff1681565b60075481565b6114cf61172d565b73ffffffffffffffffffffffffffffffffffffffff166114ed610f19565b73ffffffffffffffffffffffffffffffffffffffff1614611543576040517f08c379a000000000000000000000000000000000000000000000000000000000815260040161153a90611c5b565b60405180910390fd5b6005544211611587576040517f08c379a000000000000000000000000000000000000000000000000000000000815260040161157e90611c3b565b60405180910390fd5b61158f610b5b565b6115b76115a8620151808361174b90919063ffffffff16565b4261177790919063ffffffff16565b6005819055506115fa620151806115ec836115de629896808761174b90919063ffffffff16565b61176190919063ffffffff16565b61176190919063ffffffff16565b600681905550600360009054906101000a900473ffffffffffffffffffffffffffffffffffffffff1673ffffffffffffffffffffffffffffffffffffffff166323b872dd3330856040518463ffffffff1660e01b815260040161165f93929190611b1e565b602060405180830381600087803b15801561167957600080fd5b505af115801561168d573d6000803e3d6000fd5b505050506040513d601f19601f820116820180604052508101906116b191906118ce565b6116f0576040517f08c379a00000000000000000000000000000000000000000000000000000000081526004016116e790611c9b565b60405180910390fd5b7f035a6817755d9d163087d4649b27315908b801d1f5e33071a44f1fc0f7a871b38282604051611721929190611cd6565b60405180910390a15050565b600033905090565b600081836117439190611e41565b905092915050565b600081836117599190611de7565b905092915050565b6000818361176f9190611db6565b905092915050565b600081836117859190611d60565b905092915050565b60008060009054906101000a900473ffffffffffffffffffffffffffffffffffffffff169050816000806101000a81548173ffffffffffffffffffffffffffffffffffffffff021916908373ffffffffffffffffffffffffffffffffffffffff1602179055508173ffffffffffffffffffffffffffffffffffffffff168173ffffffffffffffffffffffffffffffffffffffff167f8be0079c531659141344cd1fd0a4f28419497f9722a3daafe3b4186f6b6457e060405160405180910390a35050565b6000813590506118608161219e565b92915050565b600081519050611875816121b5565b92915050565b60008135905061188a816121cc565b92915050565b60008151905061189f816121cc565b92915050565b6000602082840312156118b757600080fd5b60006118c584828501611851565b91505092915050565b6000602082840312156118e057600080fd5b60006118ee84828501611866565b91505092915050565b60006020828403121561190957600080fd5b60006119178482850161187b565b91505092915050565b60006020828403121561193257600080fd5b600061194084828501611890565b91505092915050565b6000806040838503121561195c57600080fd5b600061196a8582860161187b565b925050602061197b8582860161187b565b9150509250929050565b61198e81611e75565b82525050565b61199d81611ebd565b82525050565b60006119ae82611d44565b6119b88185611d4f565b93506119c8818560208601611ee1565b6119d181611fd3565b840191505092915050565b60006119e9602183611d4f565b91506119f482611fe4565b604082019050919050565b6000611a0c602683611d4f565b9150611a1782612033565b604082019050919050565b6000611a2f601b83611d4f565b9150611a3a82612082565b602082019050919050565b6000611a52601e83611d4f565b9150611a5d826120ab565b602082019050919050565b6000611a75603083611d4f565b9150611a80826120d4565b604082019050919050565b6000611a98602083611d4f565b9150611aa382612123565b602082019050919050565b6000611abb601a83611d4f565b9150611ac68261214c565b602082019050919050565b6000611ade601783611d4f565b9150611ae982612175565b602082019050919050565b611afd81611eb3565b82525050565b6000602082019050611b186000830184611985565b92915050565b6000606082019050611b336000830186611985565b611b406020830185611985565b611b4d6040830184611af4565b949350505050565b6000604082019050611b6a6000830185611985565b611b776020830184611af4565b9392505050565b6000602082019050611b936000830184611994565b92915050565b60006020820190508181036000830152611bb381846119a3565b905092915050565b60006020820190508181036000830152611bd4816119dc565b9050919050565b60006020820190508181036000830152611bf4816119ff565b9050919050565b60006020820190508181036000830152611c1481611a22565b9050919050565b60006020820190508181036000830152611c3481611a45565b9050919050565b60006020820190508181036000830152611c5481611a68565b9050919050565b60006020820190508181036000830152611c7481611a8b565b9050919050565b60006020820190508181036000830152611c9481611aae565b9050919050565b60006020820190508181036000830152611cb481611ad1565b9050919050565b6000602082019050611cd06000830184611af4565b92915050565b6000604082019050611ceb6000830185611af4565b611cf86020830184611af4565b9392505050565b6000608082019050611d146000830187611af4565b611d216020830186611af4565b611d2e6040830185611af4565b611d3b6060830184611af4565b95945050505050565b600081519050919050565b600082825260208201905092915050565b6000611d6b82611eb3565b9150611d7683611eb3565b9250827fffffffffffffffffffffffffffffffffffffffffffffffffffffffffffffffff03821115611dab57611daa611f46565b5b828201905092915050565b6000611dc182611eb3565b9150611dcc83611eb3565b925082611ddc57611ddb611f75565b5b828204905092915050565b6000611df282611eb3565b9150611dfd83611eb3565b9250817fffffffffffffffffffffffffffffffffffffffffffffffffffffffffffffffff0483118215151615611e3657611e35611f46565b5b828202905092915050565b6000611e4c82611eb3565b9150611e5783611eb3565b925082821015611e6a57611e69611f46565b5b828203905092915050565b6000611e8082611e93565b9050919050565b60008115159050919050565b600073ffffffffffffffffffffffffffffffffffffffff82169050919050565b6000819050919050565b6000611ec882611ecf565b9050919050565b6000611eda82611e93565b9050919050565b60005b83811015611eff578082015181840152602081019050611ee4565b83811115611f0e576000848401525b50505050565b60006002820490506001821680611f2c57607f821691505b60208210811415611f4057611f3f611fa4565b5b50919050565b7f4e487b7100000000000000000000000000000000000000000000000000000000600052601160045260246000fd5b7f4e487b7100000000000000000000000000000000000000000000000000000000600052601260045260246000fd5b7f4e487b7100000000000000000000000000000000000000000000000000000000600052602260045260246000fd5b6000601f19601f8301169050919050565b7f5374616b65723a206465706f736974207769746864726177616c206661696c6560008201527f6400000000000000000000000000000000000000000000000000000000000000602082015250565b7f4f776e61626c653a206e6577206f776e657220697320746865207a65726f206160008201527f6464726573730000000000000000000000000000000000000000000000000000602082015250565b7f5374616b65723a207472616e7366657246726f6d206661696c65640000000000600082015250565b7f5374616b65723a20726577617264207472616e73666572206661696c65640000600082015250565b7f5374616b65723a2063616e2774206164642072657761726473206265666f726560008201527f20706572696f642066696e697368656400000000000000000000000000000000602082015250565b7f4f776e61626c653a2063616c6c6572206973206e6f7420746865206f776e6572600082015250565b7f5374616b65723a2062616c616e6365206e6f7420656e6f756768000000000000600082015250565b7f5374616b65723a207472616e73666572206661696c6564000000000000000000600082015250565b6121a781611e75565b81146121b257600080fd5b50565b6121be81611e87565b81146121c957600080fd5b50565b6121d581611eb3565b81146121e057600080fd5b5056fea264697066735822122027a346ffbee58ea804011de94a90854104df5e710d36fe940568df973ce22e5964736f6c63430008040033",
  "immutableReferences": {},
  "source": "// SPDX-License-Identifier: UNLICENSED\n\n\npragma solidity ^0.8.4;\n\nimport \"@openzeppelin/contracts/token/ERC20/IERC20.sol\";\nimport \"@openzeppelin/contracts/utils/math/SafeMath.sol\";\nimport \"@openzeppelin/contracts/access/Ownable.sol\";\nimport \"./RewardToken.sol\";\n\n/*\n    Staker contract for ETB Projects #2\n    ===================================\n    Based on Sushiswap MasterChef.\n    The basic idea is to keep an accumulating pool \"share balance\" (accumulatedRewardPerShare):\n    Every unit of this balance represents the proportionate reward of a single wei which is staked in the contract.\n    This balance is updated in updateRewards() (which is called in each deposit/withdraw/claim)\n        according to the time passed from the last update and in proportion to the total tokens staked in the pool.\n        Basically: accumulatedRewardPerShare = accumulatedRewardPerShare + (seconds passed from last update) * (rewards per second) / (total tokens staked)\n    We also save for each user an accumulation of how much he has already claimed so far.\n    And so to calculate a user's rewards, we basically just need to calculate:\n    userRewards = accumulatedRewardPerShare * (user's currently staked tokens) - (user's rewards already claimed) \n    And updated the user's rewards already claimed accordingly.\n*/\ncontract Staker2 is Ownable {\n    string public name = \"Luisca Staking Application\";\n    using SafeMath for uint256;\n\n    struct UserInfo {\n        uint256 deposited;\n        uint256 rewardsAlreadyConsidered;\n    }\n\n    mapping (address => UserInfo) users;\n    \n    IERC20 public rewardToken;\n    // We are not using rewardToken.balanceOf in order to prevent DOS attacks (attacker can make the total tokens staked very large)\n    // and to add a skim() functionality with which the owner can collect tokens which were transferred outside the stake mechanism.\n    uint256 public totalStaked;\n\n    uint256 public rewardPeriodEndTimestamp;\n    uint256 public rewardPerSecond; // multiplied by 1e7, to make up for division by 24*60*60\n\n    uint256 public lastRewardTimestamp;\n    uint256 public accumulatedRewardPerShare; // multiplied by 1e12, same as MasterChef\n\n    event AddRewards(uint256 amount, uint256 lengthInDays);\n    event ClaimReward(address indexed user, uint256 amount);\n    event Deposit(address indexed user, uint256 amount);\n    event Withdraw(address indexed user, uint256 amount);\n    event Skim(uint256 amount);\n    \n\n    constructor(address _rewardToken) {\n        rewardToken = IERC20(_rewardToken);\n    }\n\n    // Owner should have approved ERC20 before.\n    function addRewards(uint256 _rewardsAmount, uint256 _lengthInDays)\n    external onlyOwner {\n        require(block.timestamp > rewardPeriodEndTimestamp, \"Staker: can't add rewards before period finished\");\n        updateRewards();\n        rewardPeriodEndTimestamp = block.timestamp.add(_lengthInDays.mul(24*60*60));\n        rewardPerSecond = _rewardsAmount.mul(1e7).div(_lengthInDays).div(24*60*60);\n        require(rewardToken.transferFrom(msg.sender, address(this), _rewardsAmount), \"Staker: transfer failed\");\n        emit AddRewards(_rewardsAmount, _lengthInDays);\n    }\n\n    // Main function to keep a balance of the rewards.\n    // Is called before each user action (stake, unstake, claim).\n    // See top of file for high level description.\n    function updateRewards()\n    public {\n        // If no staking period active, or already updated rewards after staking ended, or nobody staked anything - nothing to do\n        if (block.timestamp <= lastRewardTimestamp) {\n            return;\n        }\n        if ((totalStaked == 0) || lastRewardTimestamp > rewardPeriodEndTimestamp) {\n            lastRewardTimestamp = block.timestamp;\n            return;\n        }\n\n        // If staking period ended, calculate time delta based on the time the staking ended (and not after)\n        uint256 endingTime;\n        if (block.timestamp > rewardPeriodEndTimestamp) {\n            endingTime = rewardPeriodEndTimestamp;\n        } else {\n            endingTime = block.timestamp;\n        }\n        uint256 secondsSinceLastRewardUpdate = endingTime.sub(lastRewardTimestamp);\n        uint256 totalNewReward = secondsSinceLastRewardUpdate.mul(rewardPerSecond); // For everybody in the pool\n        // The next line will calculate the reward for each staked token in the pool.\n        //  So when a specific user will claim his rewards,\n        //  we will basically multiply this var by the amount the user staked.\n        accumulatedRewardPerShare = accumulatedRewardPerShare.add(totalNewReward.mul(1e12).div(totalStaked));\n        lastRewardTimestamp = block.timestamp;\n        if (block.timestamp > rewardPeriodEndTimestamp) {\n            rewardPerSecond = 0;\n        }\n    }\n\n    // Will deposit specified amount and also send rewards.\n    // User should have approved ERC20 before.\n    function deposit(uint256 _amount)\n    external {\n        UserInfo storage user = users[msg.sender];\n        updateRewards();\n        // Send reward for previous deposits\n        if (user.deposited > 0) {\n            uint256 pending = user.deposited.mul(accumulatedRewardPerShare).div(1e12).div(1e7).sub(user.rewardsAlreadyConsidered);\n            require(rewardToken.transfer(msg.sender, pending), \"Staker: transfer failed\");\n            emit ClaimReward(msg.sender, pending);\n        }\n        user.deposited = user.deposited.add(_amount);\n        totalStaked = totalStaked.add(_amount);\n        user.rewardsAlreadyConsidered = user.deposited.mul(accumulatedRewardPerShare).div(1e12).div(1e7);\n        require(rewardToken.transferFrom(msg.sender, address(this), _amount), \"Staker: transferFrom failed\");\n        emit Deposit(msg.sender, _amount);\n    }\n    \n\n    // Will withdraw the specified amount and also send rewards.\n    function withdraw(uint256 _amount)\n    external {\n        UserInfo storage user = users[msg.sender];\n        require(user.deposited >= _amount, \"Staker: balance not enough\");\n        updateRewards();\n        // Send reward for previous deposits\n        uint256 pending = user.deposited.mul(accumulatedRewardPerShare).div(1e12).div(1e7).sub(user.rewardsAlreadyConsidered);\n        require(rewardToken.transfer(msg.sender, pending), \"Staker: reward transfer failed\");\n        emit ClaimReward(msg.sender, pending);\n        user.deposited = user.deposited.sub(_amount);\n        totalStaked = totalStaked.sub(_amount);\n        user.rewardsAlreadyConsidered = user.deposited.mul(accumulatedRewardPerShare).div(1e12).div(1e7);\n        require(rewardToken.transfer(msg.sender, _amount), \"Staker: deposit withdrawal failed\");\n        emit Withdraw(msg.sender, _amount);\n    }\n\n    // Will just send rewards.\n    function claim()\n    external {\n        UserInfo storage user = users[msg.sender];\n        if (user.deposited == 0)\n            return;\n\n        updateRewards();\n        uint256 pending = user.deposited.mul(accumulatedRewardPerShare).div(1e12).div(1e7).sub(user.rewardsAlreadyConsidered);\n        require(rewardToken.transfer(msg.sender, pending), \"Staker: transfer failed\");\n        emit ClaimReward(msg.sender, pending);\n        user.rewardsAlreadyConsidered = user.deposited.mul(accumulatedRewardPerShare).div(1e12).div(1e7);\n        \n    }\n\n    // Will collect rewardTokens (LP tokens) that were sent to the contract\n    //  Outside of the staking mechanism.\n    function skim()\n    external onlyOwner {\n        uint256 rewardTokenBalance = rewardToken.balanceOf(address(this));\n        if (rewardTokenBalance > totalStaked) {\n            uint256 amount = rewardTokenBalance.sub(totalStaked);\n            require(rewardToken.transfer(msg.sender, amount), \"Staker: transfer failed\");\n            emit Skim(amount);\n        }\n    }\n\n    /* \n        ####################################################\n        ################## View functions ##################\n        ####################################################\n    */\n\n    // Return the user's pending rewards.\n    function pendingRewards(address _user)\n    public view returns (uint256) {\n        UserInfo storage user = users[_user];\n        uint256 accumulated = accumulatedRewardPerShare;\n        if (block.timestamp > lastRewardTimestamp && lastRewardTimestamp <= rewardPeriodEndTimestamp && totalStaked != 0) {\n            uint256 endingTime;\n            if (block.timestamp > rewardPeriodEndTimestamp) {\n                endingTime = rewardPeriodEndTimestamp;\n            } else {\n                endingTime = block.timestamp;\n            }\n            uint256 secondsSinceLastRewardUpdate = endingTime.sub(lastRewardTimestamp);\n            uint256 totalNewReward = secondsSinceLastRewardUpdate.mul(rewardPerSecond);\n            accumulated = accumulated.add(totalNewReward.mul(1e12).div(totalStaked));\n        }\n        return user.deposited.mul(accumulated).div(1e12).div(1e7).sub(user.rewardsAlreadyConsidered);\n    }\n\n    // Returns misc details for the front end.\n    function getFrontendView()\n    external view returns (uint256 _rewardPerSecond, uint256 _secondsLeft, uint256 _deposited, uint256 _pending) {\n        if (block.timestamp <= rewardPeriodEndTimestamp) {\n            _secondsLeft = rewardPeriodEndTimestamp.sub(block.timestamp); \n            _rewardPerSecond = rewardPerSecond.div(1e7);\n        } // else, anyway these values will default to 0\n        _deposited = users[msg.sender].deposited;\n        _pending = pendingRewards(msg.sender);\n    }\n}",
  "sourcePath": "/home/luisca/blockchain/solidity-challenge/contracts/Staker2.sol",
  "compiler": {
    "name": "solc",
    "version": "0.8.4+commit.c7e474f2.Emscripten.clang"
  },
  "schemaVersion": "3.4.3",
  "updatedAt": "2021-10-23T13:15:54.724Z",
  "devdoc": {
    "kind": "dev",
    "methods": {
      "owner()": {
        "details": "Returns the address of the current owner."
      },
      "renounceOwnership()": {
        "details": "Leaves the contract without owner. It will not be possible to call `onlyOwner` functions anymore. Can only be called by the current owner. NOTE: Renouncing ownership will leave the contract without an owner, thereby removing any functionality that is only available to the owner."
      },
      "transferOwnership(address)": {
        "details": "Transfers ownership of the contract to a new account (`newOwner`). Can only be called by the current owner."
      }
    },
    "version": 1
  },
  "userdoc": {
    "kind": "user",
    "methods": {},
    "version": 1
  }
}