{
  "contractName": "Staker2",
  "abi": [
    {
      "inputs": [
        {
          "internalType": "address",
          "name": "_rewardToken",
          "type": "address"
        }
      ],
      "stateMutability": "nonpayable",
      "type": "constructor"
    },
    {
      "anonymous": false,
      "inputs": [
        {
          "indexed": true,
          "internalType": "address",
          "name": "user",
          "type": "address"
        },
        {
          "indexed": false,
          "internalType": "uint256",
          "name": "amount",
          "type": "uint256"
        }
      ],
      "name": "ClaimReward",
      "type": "event"
    },
    {
      "anonymous": false,
      "inputs": [
        {
          "indexed": true,
          "internalType": "address",
          "name": "user",
          "type": "address"
        },
        {
          "indexed": false,
          "internalType": "uint256",
          "name": "amount",
          "type": "uint256"
        }
      ],
      "name": "Deposit",
      "type": "event"
    },
    {
      "anonymous": false,
      "inputs": [
        {
          "indexed": true,
          "internalType": "address",
          "name": "previousOwner",
          "type": "address"
        },
        {
          "indexed": true,
          "internalType": "address",
          "name": "newOwner",
          "type": "address"
        }
      ],
      "name": "OwnershipTransferred",
      "type": "event"
    },
    {
      "anonymous": false,
      "inputs": [
        {
          "indexed": false,
          "internalType": "uint256",
          "name": "amount",
          "type": "uint256"
        },
        {
          "indexed": false,
          "internalType": "uint256",
          "name": "lengthInSeconds",
          "type": "uint256"
        }
      ],
      "name": "SetRewards",
      "type": "event"
    },
    {
      "anonymous": false,
      "inputs": [
        {
          "indexed": false,
          "internalType": "uint256",
          "name": "amount",
          "type": "uint256"
        }
      ],
      "name": "Skim",
      "type": "event"
    },
    {
      "anonymous": false,
      "inputs": [
        {
          "indexed": true,
          "internalType": "address",
          "name": "user",
          "type": "address"
        },
        {
          "indexed": false,
          "internalType": "uint256",
          "name": "amount",
          "type": "uint256"
        }
      ],
      "name": "Withdraw",
      "type": "event"
    },
    {
      "inputs": [],
      "name": "accumulatedRewardPerShare",
      "outputs": [
        {
          "internalType": "uint256",
          "name": "",
          "type": "uint256"
        }
      ],
      "stateMutability": "view",
      "type": "function"
    },
    {
      "inputs": [],
      "name": "lastRewardTimestamp",
      "outputs": [
        {
          "internalType": "uint256",
          "name": "",
          "type": "uint256"
        }
      ],
      "stateMutability": "view",
      "type": "function"
    },
    {
      "inputs": [],
      "name": "name",
      "outputs": [
        {
          "internalType": "string",
          "name": "",
          "type": "string"
        }
      ],
      "stateMutability": "view",
      "type": "function"
    },
    {
      "inputs": [],
      "name": "owner",
      "outputs": [
        {
          "internalType": "address",
          "name": "",
          "type": "address"
        }
      ],
      "stateMutability": "view",
      "type": "function"
    },
    {
      "inputs": [],
      "name": "renounceOwnership",
      "outputs": [],
      "stateMutability": "nonpayable",
      "type": "function"
    },
    {
      "inputs": [],
      "name": "rewardPerSecond",
      "outputs": [
        {
          "internalType": "uint256",
          "name": "",
          "type": "uint256"
        }
      ],
      "stateMutability": "view",
      "type": "function"
    },
    {
      "inputs": [],
      "name": "rewardPeriodEndTimestamp",
      "outputs": [
        {
          "internalType": "uint256",
          "name": "",
          "type": "uint256"
        }
      ],
      "stateMutability": "view",
      "type": "function"
    },
    {
      "inputs": [],
      "name": "rewardToken",
      "outputs": [
        {
          "internalType": "contract IERC20",
          "name": "",
          "type": "address"
        }
      ],
      "stateMutability": "view",
      "type": "function"
    },
    {
      "inputs": [],
      "name": "totalStaked",
      "outputs": [
        {
          "internalType": "uint256",
          "name": "",
          "type": "uint256"
        }
      ],
      "stateMutability": "view",
      "type": "function"
    },
    {
      "inputs": [
        {
          "internalType": "address",
          "name": "newOwner",
          "type": "address"
        }
      ],
      "name": "transferOwnership",
      "outputs": [],
      "stateMutability": "nonpayable",
      "type": "function"
    },
    {
      "inputs": [
        {
          "internalType": "uint256",
          "name": "_rewardsAmount",
          "type": "uint256"
        },
        {
          "internalType": "uint256",
          "name": "_lengthInSeconds",
          "type": "uint256"
        }
      ],
      "name": "setRewards",
      "outputs": [],
      "stateMutability": "nonpayable",
      "type": "function"
    },
    {
      "inputs": [],
      "name": "deposit",
      "outputs": [],
      "stateMutability": "payable",
      "type": "function"
    },
    {
      "inputs": [
        {
          "internalType": "uint256",
          "name": "_amount",
          "type": "uint256"
        }
      ],
      "name": "withdraw",
      "outputs": [],
      "stateMutability": "nonpayable",
      "type": "function"
    },
    {
      "inputs": [],
      "name": "claim",
      "outputs": [],
      "stateMutability": "nonpayable",
      "type": "function"
    },
    {
      "inputs": [],
      "name": "skim",
      "outputs": [],
      "stateMutability": "nonpayable",
      "type": "function"
    },
    {
      "inputs": [
        {
          "internalType": "address",
          "name": "_user",
          "type": "address"
        }
      ],
      "name": "pendingRewards",
      "outputs": [
        {
          "internalType": "uint256",
          "name": "",
          "type": "uint256"
        }
      ],
      "stateMutability": "view",
      "type": "function"
    },
    {
      "inputs": [],
      "name": "getFrontendView",
      "outputs": [
        {
          "internalType": "uint256",
          "name": "_rewardPerSecond",
          "type": "uint256"
        },
        {
          "internalType": "uint256",
          "name": "_secondsLeft",
          "type": "uint256"
        },
        {
          "internalType": "uint256",
          "name": "_deposited",
          "type": "uint256"
        },
        {
          "internalType": "uint256",
          "name": "_pending",
          "type": "uint256"
        }
      ],
      "stateMutability": "view",
      "type": "function"
    }
  ],
  "bytecode": "0x60806040526040518060400160405280601a81526020017f4c7569736361205374616b696e67204170706c69636174696f6e0000000000008152506001908051906020019062000051929190620001b9565b503480156200005f57600080fd5b50604051620020b7380380620020b7833981810160405281019062000085919062000280565b620000a562000099620000ed60201b60201c565b620000f560201b60201c565b80600360006101000a81548173ffffffffffffffffffffffffffffffffffffffff021916908373ffffffffffffffffffffffffffffffffffffffff160217905550506200035f565b600033905090565b60008060009054906101000a900473ffffffffffffffffffffffffffffffffffffffff169050816000806101000a81548173ffffffffffffffffffffffffffffffffffffffff021916908373ffffffffffffffffffffffffffffffffffffffff1602179055508173ffffffffffffffffffffffffffffffffffffffff168173ffffffffffffffffffffffffffffffffffffffff167f8be0079c531659141344cd1fd0a4f28419497f9722a3daafe3b4186f6b6457e060405160405180910390a35050565b828054620001c790620002e0565b90600052602060002090601f016020900481019282620001eb576000855562000237565b82601f106200020657805160ff191683800117855562000237565b8280016001018555821562000237579182015b828111156200023657825182559160200191906001019062000219565b5b5090506200024691906200024a565b5090565b5b80821115620002655760008160009055506001016200024b565b5090565b6000815190506200027a8162000345565b92915050565b6000602082840312156200029357600080fd5b6000620002a38482850162000269565b91505092915050565b6000620002b982620002c0565b9050919050565b600073ffffffffffffffffffffffffffffffffffffffff82169050919050565b60006002820490506001821680620002f957607f821691505b6020821081141562000310576200030f62000316565b5b50919050565b7f4e487b7100000000000000000000000000000000000000000000000000000000600052602260045260246000fd5b6200035081620002ac565b81146200035c57600080fd5b50565b611d48806200036f6000396000f3fe6080604052600436106100fe5760003560e01c8063817b1cd211610095578063cfc2b32011610064578063cfc2b320146102dc578063d0e30db014610307578063f2fde38b14610311578063f7c618c11461033a578063f8077fae14610365576100fe565b8063817b1cd21461022d5780638da5cb5b146102585780638f10369a14610283578063abed2e7f146102ae576100fe565b806336d42195116100d157806336d42195146101ab5780634e71d92d146101d6578063654e51e7146101ed578063715018a614610216576100fe565b806306fdde03146101035780631dd19cb41461012e5780632e1a7d4d1461014557806331d7a2621461016e575b600080fd5b34801561010f57600080fd5b50610118610390565b6040516101259190611780565b60405180910390f35b34801561013a57600080fd5b5061014361041e565b005b34801561015157600080fd5b5061016c6004803603810190610167919061155b565b610696565b005b34801561017a57600080fd5b5061019560048036038101906101909190611509565b610a8b565b6040516101a29190611862565b60405180910390f35b3480156101b757600080fd5b506101c0610bf1565b6040516101cd9190611862565b60405180910390f35b3480156101e257600080fd5b506101eb610bf7565b005b3480156101f957600080fd5b50610214600480360381019061020f91906115ad565b610c59565b005b34801561022257600080fd5b5061022b610d61565b005b34801561023957600080fd5b50610242610de9565b60405161024f9190611862565b60405180910390f35b34801561026457600080fd5b5061026d610def565b60405161027a9190611721565b60405180910390f35b34801561028f57600080fd5b50610298610e18565b6040516102a59190611862565b60405180910390f35b3480156102ba57600080fd5b506102c3610e1e565b6040516102d394939291906118a6565b60405180910390f35b3480156102e857600080fd5b506102f1610eb5565b6040516102fe9190611862565b60405180910390f35b61030f610ebb565b005b34801561031d57600080fd5b5061033860048036038101906103339190611509565b611188565b005b34801561034657600080fd5b5061034f611280565b60405161035c9190611765565b60405180910390f35b34801561037157600080fd5b5061037a6112a6565b6040516103879190611862565b60405180910390f35b6001805461039d90611abb565b80601f01602080910402602001604051908101604052809291908181526020018280546103c990611abb565b80156104165780601f106103eb57610100808354040283529160200191610416565b820191906000526020600020905b8154815290600101906020018083116103f957829003601f168201915b505050505081565b6104266112ac565b73ffffffffffffffffffffffffffffffffffffffff16610444610def565b73ffffffffffffffffffffffffffffffffffffffff161461049a576040517f08c379a000000000000000000000000000000000000000000000000000000000815260040161049190611802565b60405180910390fd5b6000600360009054906101000a900473ffffffffffffffffffffffffffffffffffffffff1673ffffffffffffffffffffffffffffffffffffffff166370a08231306040518263ffffffff1660e01b81526004016104f79190611721565b60206040518083038186803b15801561050f57600080fd5b505afa158015610523573d6000803e3d6000fd5b505050506040513d601f19601f820116820180604052508101906105479190611584565b905060045481111561069357600061056a600454836112b490919063ffffffff16565b9050600360009054906101000a900473ffffffffffffffffffffffffffffffffffffffff1673ffffffffffffffffffffffffffffffffffffffff1663a9059cbb33836040518363ffffffff1660e01b81526004016105c992919061173c565b602060405180830381600087803b1580156105e357600080fd5b505af11580156105f7573d6000803e3d6000fd5b505050506040513d601f19601f8201168201806040525081019061061b9190611532565b61065a576040517f08c379a000000000000000000000000000000000000000000000000000000000815260040161065190611842565b60405180910390fd5b7f09639ca13db231feb5ad02aa7a3e9d59549523814fbf88e0f7b51412c7d48251816040516106899190611862565b60405180910390a1505b50565b6000600260003373ffffffffffffffffffffffffffffffffffffffff1673ffffffffffffffffffffffffffffffffffffffff16815260200190815260200160002090508181600001541015610720576040517f08c379a000000000000000000000000000000000000000000000000000000000815260040161071790611822565b60405180910390fd5b6107286112ca565b600061078582600101546107776298968061076964e8d4a5100061075b60085489600001546113af90919063ffffffff16565b6113c590919063ffffffff16565b6113c590919063ffffffff16565b6112b490919063ffffffff16565b9050600360009054906101000a900473ffffffffffffffffffffffffffffffffffffffff1673ffffffffffffffffffffffffffffffffffffffff1663a9059cbb33836040518363ffffffff1660e01b81526004016107e492919061173c565b602060405180830381600087803b1580156107fe57600080fd5b505af1158015610812573d6000803e3d6000fd5b505050506040513d601f19601f820116820180604052508101906108369190611532565b610875576040517f08c379a000000000000000000000000000000000000000000000000000000000815260040161086c906117e2565b60405180910390fd5b3373ffffffffffffffffffffffffffffffffffffffff167fba8de60c3403ec381d1d484652ea1980e3c3e56359195c92525bff4ce47ad98e826040516108bb9190611862565b60405180910390a26108da8383600001546112b490919063ffffffff16565b82600001819055506108f7836004546112b490919063ffffffff16565b6004819055506109426298968061093464e8d4a5100061092660085487600001546113af90919063ffffffff16565b6113c590919063ffffffff16565b6113c590919063ffffffff16565b8260010181905550600360009054906101000a900473ffffffffffffffffffffffffffffffffffffffff1673ffffffffffffffffffffffffffffffffffffffff1663a9059cbb33856040518363ffffffff1660e01b81526004016109a792919061173c565b602060405180830381600087803b1580156109c157600080fd5b505af11580156109d5573d6000803e3d6000fd5b505050506040513d601f19601f820116820180604052508101906109f99190611532565b610a38576040517f08c379a0000000000000000000000000000000000000000000000000000000008152600401610a2f906117a2565b60405180910390fd5b3373ffffffffffffffffffffffffffffffffffffffff167f884edad9ce6fa2440d8a54cc123490eb96d2768479d49ff9c7366125a942436484604051610a7e9190611862565b60405180910390a2505050565b600080600260008473ffffffffffffffffffffffffffffffffffffffff1673ffffffffffffffffffffffffffffffffffffffff16815260200190815260200160002090506000600854905060075442118015610aeb575060055460075411155b8015610afa5750600060045414155b15610b8f576000600554421115610b15576005549050610b19565b4290505b6000610b30600754836112b490919063ffffffff16565b90506000610b49600654836113af90919063ffffffff16565b9050610b89610b7a600454610b6c64e8d4a51000856113af90919063ffffffff16565b6113c590919063ffffffff16565b856113db90919063ffffffff16565b93505050505b610be88260010154610bda62989680610bcc64e8d4a51000610bbe8789600001546113af90919063ffffffff16565b6113c590919063ffffffff16565b6113c590919063ffffffff16565b6112b490919063ffffffff16565b92505050919050565b60085481565b6000600260003373ffffffffffffffffffffffffffffffffffffffff1673ffffffffffffffffffffffffffffffffffffffff1681526020019081526020016000209050600081600001541415610c4d5750610c57565b610c556112ca565b505b565b610c616112ac565b73ffffffffffffffffffffffffffffffffffffffff16610c7f610def565b73ffffffffffffffffffffffffffffffffffffffff1614610cd5576040517f08c379a0000000000000000000000000000000000000000000000000000000008152600401610ccc90611802565b60405180910390fd5b610cdd6112ca565b610cf081426113db90919063ffffffff16565b600581905550610d1e81610d1062989680856113af90919063ffffffff16565b6113c590919063ffffffff16565b6006819055507f41ddb6f76c2aab8405d1cca4bd752e126ac8976c1203888790f8594c7ba366118282604051610d5592919061187d565b60405180910390a15050565b610d696112ac565b73ffffffffffffffffffffffffffffffffffffffff16610d87610def565b73ffffffffffffffffffffffffffffffffffffffff1614610ddd576040517f08c379a0000000000000000000000000000000000000000000000000000000008152600401610dd490611802565b60405180910390fd5b610de760006113f1565b565b60045481565b60008060009054906101000a900473ffffffffffffffffffffffffffffffffffffffff16905090565b60065481565b6000806000806005544211610e5f57610e42426005546112b490919063ffffffff16565b9250610e5c629896806006546113c590919063ffffffff16565b93505b600260003373ffffffffffffffffffffffffffffffffffffffff1673ffffffffffffffffffffffffffffffffffffffff168152602001908152602001600020600001549150610ead33610a8b565b905090919293565b60055481565b6000600260003373ffffffffffffffffffffffffffffffffffffffff1673ffffffffffffffffffffffffffffffffffffffff1681526020019081526020016000209050610f066112ca565b6000816000015411156110b0576000610f708260010154610f6262989680610f5464e8d4a51000610f4660085489600001546113af90919063ffffffff16565b6113c590919063ffffffff16565b6113c590919063ffffffff16565b6112b490919063ffffffff16565b9050600360009054906101000a900473ffffffffffffffffffffffffffffffffffffffff1673ffffffffffffffffffffffffffffffffffffffff1663a9059cbb33836040518363ffffffff1660e01b8152600401610fcf92919061173c565b602060405180830381600087803b158015610fe957600080fd5b505af1158015610ffd573d6000803e3d6000fd5b505050506040513d601f19601f820116820180604052508101906110219190611532565b611060576040517f08c379a000000000000000000000000000000000000000000000000000000000815260040161105790611842565b60405180910390fd5b3373ffffffffffffffffffffffffffffffffffffffff167fba8de60c3403ec381d1d484652ea1980e3c3e56359195c92525bff4ce47ad98e826040516110a69190611862565b60405180910390a2505b6110c73482600001546113db90919063ffffffff16565b81600001819055506110e4346004546113db90919063ffffffff16565b60048190555061112f6298968061112164e8d4a5100061111360085486600001546113af90919063ffffffff16565b6113c590919063ffffffff16565b6113c590919063ffffffff16565b81600101819055503373ffffffffffffffffffffffffffffffffffffffff167fe1fffcc4923d04b559f4d29a8bfc6cda04eb5b0d3c460751c2402c5c5cc9109c3460405161117d9190611862565b60405180910390a250565b6111906112ac565b73ffffffffffffffffffffffffffffffffffffffff166111ae610def565b73ffffffffffffffffffffffffffffffffffffffff1614611204576040517f08c379a00000000000000000000000000000000000000000000000000000000081526004016111fb90611802565b60405180910390fd5b600073ffffffffffffffffffffffffffffffffffffffff168173ffffffffffffffffffffffffffffffffffffffff161415611274576040517f08c379a000000000000000000000000000000000000000000000000000000000815260040161126b906117c2565b60405180910390fd5b61127d816113f1565b50565b600360009054906101000a900473ffffffffffffffffffffffffffffffffffffffff1681565b60075481565b600033905090565b600081836112c291906119e8565b905092915050565b60075442116112d8576113ad565b600060045414806112ec5750600554600754115b156112fd57426007819055506113ad565b6000600554421115611313576005549050611317565b4290505b600061132e600754836112b490919063ffffffff16565b90506000611347600654836113af90919063ffffffff16565b905061138961137860045461136a64e8d4a51000856113af90919063ffffffff16565b6113c590919063ffffffff16565b6008546113db90919063ffffffff16565b600881905550426007819055506005544211156113a95760006006819055505b5050505b565b600081836113bd919061198e565b905092915050565b600081836113d3919061195d565b905092915050565b600081836113e99190611907565b905092915050565b60008060009054906101000a900473ffffffffffffffffffffffffffffffffffffffff169050816000806101000a81548173ffffffffffffffffffffffffffffffffffffffff021916908373ffffffffffffffffffffffffffffffffffffffff1602179055508173ffffffffffffffffffffffffffffffffffffffff168173ffffffffffffffffffffffffffffffffffffffff167f8be0079c531659141344cd1fd0a4f28419497f9722a3daafe3b4186f6b6457e060405160405180910390a35050565b6000813590506114c481611ccd565b92915050565b6000815190506114d981611ce4565b92915050565b6000813590506114ee81611cfb565b92915050565b60008151905061150381611cfb565b92915050565b60006020828403121561151b57600080fd5b6000611529848285016114b5565b91505092915050565b60006020828403121561154457600080fd5b6000611552848285016114ca565b91505092915050565b60006020828403121561156d57600080fd5b600061157b848285016114df565b91505092915050565b60006020828403121561159657600080fd5b60006115a4848285016114f4565b91505092915050565b600080604083850312156115c057600080fd5b60006115ce858286016114df565b92505060206115df858286016114df565b9150509250929050565b6115f281611a1c565b82525050565b61160181611a64565b82525050565b6000611612826118eb565b61161c81856118f6565b935061162c818560208601611a88565b61163581611b7a565b840191505092915050565b600061164d6021836118f6565b915061165882611b8b565b604082019050919050565b60006116706026836118f6565b915061167b82611bda565b604082019050919050565b6000611693601e836118f6565b915061169e82611c29565b602082019050919050565b60006116b66020836118f6565b91506116c182611c52565b602082019050919050565b60006116d9601a836118f6565b91506116e482611c7b565b602082019050919050565b60006116fc6017836118f6565b915061170782611ca4565b602082019050919050565b61171b81611a5a565b82525050565b600060208201905061173660008301846115e9565b92915050565b600060408201905061175160008301856115e9565b61175e6020830184611712565b9392505050565b600060208201905061177a60008301846115f8565b92915050565b6000602082019050818103600083015261179a8184611607565b905092915050565b600060208201905081810360008301526117bb81611640565b9050919050565b600060208201905081810360008301526117db81611663565b9050919050565b600060208201905081810360008301526117fb81611686565b9050919050565b6000602082019050818103600083015261181b816116a9565b9050919050565b6000602082019050818103600083015261183b816116cc565b9050919050565b6000602082019050818103600083015261185b816116ef565b9050919050565b60006020820190506118776000830184611712565b92915050565b60006040820190506118926000830185611712565b61189f6020830184611712565b9392505050565b60006080820190506118bb6000830187611712565b6118c86020830186611712565b6118d56040830185611712565b6118e26060830184611712565b95945050505050565b600081519050919050565b600082825260208201905092915050565b600061191282611a5a565b915061191d83611a5a565b9250827fffffffffffffffffffffffffffffffffffffffffffffffffffffffffffffffff0382111561195257611951611aed565b5b828201905092915050565b600061196882611a5a565b915061197383611a5a565b92508261198357611982611b1c565b5b828204905092915050565b600061199982611a5a565b91506119a483611a5a565b9250817fffffffffffffffffffffffffffffffffffffffffffffffffffffffffffffffff04831182151516156119dd576119dc611aed565b5b828202905092915050565b60006119f382611a5a565b91506119fe83611a5a565b925082821015611a1157611a10611aed565b5b828203905092915050565b6000611a2782611a3a565b9050919050565b60008115159050919050565b600073ffffffffffffffffffffffffffffffffffffffff82169050919050565b6000819050919050565b6000611a6f82611a76565b9050919050565b6000611a8182611a3a565b9050919050565b60005b83811015611aa6578082015181840152602081019050611a8b565b83811115611ab5576000848401525b50505050565b60006002820490506001821680611ad357607f821691505b60208210811415611ae757611ae6611b4b565b5b50919050565b7f4e487b7100000000000000000000000000000000000000000000000000000000600052601160045260246000fd5b7f4e487b7100000000000000000000000000000000000000000000000000000000600052601260045260246000fd5b7f4e487b7100000000000000000000000000000000000000000000000000000000600052602260045260246000fd5b6000601f19601f8301169050919050565b7f5374616b65723a206465706f736974207769746864726177616c206661696c6560008201527f6400000000000000000000000000000000000000000000000000000000000000602082015250565b7f4f776e61626c653a206e6577206f776e657220697320746865207a65726f206160008201527f6464726573730000000000000000000000000000000000000000000000000000602082015250565b7f5374616b65723a20726577617264207472616e73666572206661696c65640000600082015250565b7f4f776e61626c653a2063616c6c6572206973206e6f7420746865206f776e6572600082015250565b7f5374616b65723a2062616c616e6365206e6f7420656e6f756768000000000000600082015250565b7f5374616b65723a207472616e73666572206661696c6564000000000000000000600082015250565b611cd681611a1c565b8114611ce157600080fd5b50565b611ced81611a2e565b8114611cf857600080fd5b50565b611d0481611a5a565b8114611d0f57600080fd5b5056fea26469706673582212200544ff93cd3369883a7b1aae38d26be800450063d5fcb457b4cd1b72de8cd47164736f6c63430008040033",
  "immutableReferences": {},
  "source": "// SPDX-License-Identifier: UNLICENSED\npragma solidity ^0.8.4;\n\nimport \"@openzeppelin/contracts/token/ERC20/IERC20.sol\";\nimport \"@openzeppelin/contracts/utils/math/SafeMath.sol\"; // Here I updated the contract location for solidity 0.8.4\nimport \"@openzeppelin/contracts/access/Ownable.sol\";\nimport \"./RewardToken.sol\";\n\n/*\n    Staker contract for ETB Projects #2\n    ===================================\n    Based on Sushiswap MasterChef.\n    The basic idea is to keep an accumulating pool \"share balance\" (accumulatedRewardPerShare):\n    Every unit of this balance represents the proportionate reward of a single wei which is staked in the contract.\n    This balance is updated in updateRewards() (which is called in each deposit/withdraw/claim)\n        according to the time passed from the last update and in proportion to the total tokens staked in the pool.\n        Basically: accumulatedRewardPerShare = accumulatedRewardPerShare + (seconds passed from last update) * (rewards per second) / (total tokens staked)\n    We also save for each user an accumulation of how much he has already claimed so far.\n    And so to calculate a user's rewards, we basically just need to calculate:\n    userRewards = accumulatedRewardPerShare * (user's currently staked tokens) - (user's rewards already claimed) \n    And updated the user's rewards already claimed accordingly.\n*/\ncontract Staker2 is Ownable {\n    string public name = \"Luisca Staking Application\";\n    using SafeMath for uint256;\n\n    struct UserInfo {\n        uint256 deposited;\n        uint256 rewardsAlreadyConsidered;\n    }\n\n    mapping (address => UserInfo) users;\n    \n    IERC20 public rewardToken;\n    // We are not using rewardToken.balanceOf in order to prevent DOS attacks (attacker can make the total tokens staked very large)\n    // and to add a skim() functionality with which the owner can collect tokens which were transferred outside the stake mechanism.\n    uint256 public totalStaked;\n\n    uint256 public rewardPeriodEndTimestamp;\n    uint256 public rewardPerSecond; // multiplied by 1e7, to make up for division by 24*60*60\n\n    uint256 public lastRewardTimestamp;\n    uint256 public accumulatedRewardPerShare; // multiplied by 1e12, same as MasterChef\n\n    event SetRewards(uint256 amount, uint256 lengthInSeconds);\n    event ClaimReward(address indexed user, uint256 amount);\n    event Deposit(address indexed user, uint256 amount);\n    event Withdraw(address indexed user, uint256 amount);\n    event Skim(uint256 amount);\n    \n\n    constructor(address _rewardToken) {\n        rewardToken = IERC20(_rewardToken);\n    }\n\n    // Owner should have approved ERC20 before.\n\n/*    function addRewards(uint256 _rewardsAmount, uint256 _lengthInSeconds)\n    external onlyOwner {\n        require(block.timestamp > rewardPeriodEndTimestamp, \"Staker: can't add rewards before period finished\");\n        updateRewards();\n        rewardPeriodEndTimestamp = block.timestamp.add(_lengthInSeconds);\n        rewardPerSecond = _rewardsAmount.mul(1e7).div(_lengthInSeconds);\n        \n        //Here I have changed original require from eattheblocks since the RWT tokens are already all in the Staking Contract\n        require(rewardToken.transferFrom(msg.sender, address(this), _rewardsAmount), \"Staker: transfer failed\");\n        \n        emit AddRewards(_rewardsAmount, _lengthInSeconds);\n    }\n*/\n    /*\n    Here I have updated original function addRewards from eattheblocks since all RWT tokens are already in the Staking Contract\n    Function only used to update the reward period and amount\n    Also _lengthInDays replaced with _lengthInSeconds\n    */ \n    function setRewards(uint256 _rewardsAmount, uint256 _lengthInSeconds) external onlyOwner {\n        //require(block.timestamp > rewardPeriodEndTimestamp, \"Staker: can't add rewards before period finished\");\n        updateRewards();\n        rewardPeriodEndTimestamp = block.timestamp.add(_lengthInSeconds);\n        rewardPerSecond = _rewardsAmount.mul(1e7).div(_lengthInSeconds);\n        emit SetRewards(_rewardsAmount, _lengthInSeconds);\n    }\n\n    // Main function to keep a balance of the rewards.\n    // Is called before each user action (stake, unstake, claim).\n    // See top of file for high level description.\n    // Here I changed it from public to Internal (no sense if it is only called by other functions )\n    function updateRewards() internal {\n        // If no staking period active, or already updated rewards after staking ended, or nobody staked anything - nothing to do\n        if (block.timestamp <= lastRewardTimestamp) {\n            return;\n        }\n        if ((totalStaked == 0) || lastRewardTimestamp > rewardPeriodEndTimestamp) {\n            lastRewardTimestamp = block.timestamp;\n            return;\n        }\n\n        // If staking period ended, calculate time delta based on the time the staking ended (and not after)\n        uint256 endingTime;\n        if (block.timestamp > rewardPeriodEndTimestamp) {\n            endingTime = rewardPeriodEndTimestamp;\n        } else {\n            endingTime = block.timestamp;\n        }\n        uint256 secondsSinceLastRewardUpdate = endingTime.sub(lastRewardTimestamp);\n        uint256 totalNewReward = secondsSinceLastRewardUpdate.mul(rewardPerSecond); // For everybody in the pool\n        // The next line will calculate the reward for each staked token in the pool.\n        //  So when a specific user will claim his rewards,\n        //  we will basically multiply this var by the amount the user staked.\n        accumulatedRewardPerShare = accumulatedRewardPerShare.add(totalNewReward.mul(1e12).div(totalStaked));\n        lastRewardTimestamp = block.timestamp;\n        if (block.timestamp > rewardPeriodEndTimestamp) {\n            rewardPerSecond = 0;\n        }\n    }\n\n    // Will deposit specified amount and also send rewards.\n    // User should have approved ERC20 before.\n    /*\n    Here I have changed original function from eattheblocks to use ETH instead of LP token\n        function deposit(uint256 _amount) external {\n    */\n    function deposit() external payable {\n        UserInfo storage user = users[msg.sender];\n        updateRewards();\n        // Send reward for previous deposits\n        if (user.deposited > 0) {\n            uint256 pending = user.deposited.mul(accumulatedRewardPerShare).div(1e12).div(1e7).sub(user.rewardsAlreadyConsidered);\n            require(rewardToken.transfer(msg.sender, pending), \"Staker: transfer failed\");\n            emit ClaimReward(msg.sender, pending);\n        }\n        user.deposited = user.deposited.add(msg.value);\n        totalStaked = totalStaked.add(msg.value);\n        user.rewardsAlreadyConsidered = user.deposited.mul(accumulatedRewardPerShare).div(1e12).div(1e7);\n        /*\n        Here I have remove original require from eattheblocks since I am using ETH instead of a token\n            require(rewardToken.transferFrom(msg.sender, address(this), msg.value), \"Staker: transferFrom failed\");\n        */\n        emit Deposit(msg.sender, msg.value);\n    }\n    \n\n    // Will withdraw the specified amount and also send rewards.\n    function withdraw(uint256 _amount)\n    external {\n        UserInfo storage user = users[msg.sender];\n        require(user.deposited >= _amount, \"Staker: balance not enough\");\n        updateRewards();\n        // Send reward for previous deposits\n        uint256 pending = user.deposited.mul(accumulatedRewardPerShare).div(1e12).div(1e7).sub(user.rewardsAlreadyConsidered);\n        require(rewardToken.transfer(msg.sender, pending), \"Staker: reward transfer failed\");\n        emit ClaimReward(msg.sender, pending);\n        user.deposited = user.deposited.sub(_amount);\n        totalStaked = totalStaked.sub(_amount);\n        user.rewardsAlreadyConsidered = user.deposited.mul(accumulatedRewardPerShare).div(1e12).div(1e7);\n        require(rewardToken.transfer(msg.sender, _amount), \"Staker: deposit withdrawal failed\");\n        emit Withdraw(msg.sender, _amount);\n    }\n\n    // Will just send rewards.\n    function claim()\n    external {\n        UserInfo storage user = users[msg.sender];\n        if (user.deposited == 0)\n            return;\n\n        updateRewards();\n        /*\n        uint256 pending = user.deposited.mul(accumulatedRewardPerShare).div(1e12).div(1e7).sub(user.rewardsAlreadyConsidered);\n        require(rewardToken.transfer(msg.sender, pending), \"Staker: transfer failed\");\n        emit ClaimReward(msg.sender, pending);\n        user.rewardsAlreadyConsidered = user.deposited.mul(accumulatedRewardPerShare).div(1e12).div(1e7);\n        */\n    }\n\n    // Will collect rewardTokens (LP tokens) that were sent to the contract\n    //  Outside of the staking mechanism.\n    function skim()\n    external onlyOwner {\n        uint256 rewardTokenBalance = rewardToken.balanceOf(address(this));\n        if (rewardTokenBalance > totalStaked) {\n            uint256 amount = rewardTokenBalance.sub(totalStaked);\n            require(rewardToken.transfer(msg.sender, amount), \"Staker: transfer failed\");\n            emit Skim(amount);\n        }\n    }\n\n    /* \n        ####################################################\n        ################## View functions ##################\n        ####################################################\n    */\n\n    // Return the user's pending rewards.\n    function pendingRewards(address _user)\n    public view returns (uint256) {\n        UserInfo storage user = users[_user];\n        uint256 accumulated = accumulatedRewardPerShare;\n        if (block.timestamp > lastRewardTimestamp && lastRewardTimestamp <= rewardPeriodEndTimestamp && totalStaked != 0) {\n            uint256 endingTime;\n            if (block.timestamp > rewardPeriodEndTimestamp) {\n                endingTime = rewardPeriodEndTimestamp;\n            } else {\n                endingTime = block.timestamp;\n            }\n            uint256 secondsSinceLastRewardUpdate = endingTime.sub(lastRewardTimestamp);\n            uint256 totalNewReward = secondsSinceLastRewardUpdate.mul(rewardPerSecond);\n            accumulated = accumulated.add(totalNewReward.mul(1e12).div(totalStaked));\n        }\n        return user.deposited.mul(accumulated).div(1e12).div(1e7).sub(user.rewardsAlreadyConsidered);\n    }\n\n    // Returns misc details for the front end.\n    function getFrontendView()\n    external view returns (uint256 _rewardPerSecond, uint256 _secondsLeft, uint256 _deposited, uint256 _pending) {\n        if (block.timestamp <= rewardPeriodEndTimestamp) {\n            _secondsLeft = rewardPeriodEndTimestamp.sub(block.timestamp); \n            _rewardPerSecond = rewardPerSecond.div(1e7);\n        } // else, anyway these values will default to 0\n        _deposited = users[msg.sender].deposited;\n        _pending = pendingRewards(msg.sender);\n    }\n}",
  "sourcePath": "/home/luisca/blockchain/solidity-challenge/contracts/Staker2.sol",
  "compiler": {
    "name": "solc",
    "version": "0.8.4+commit.c7e474f2.Emscripten.clang"
  },
  "schemaVersion": "3.4.3",
  "updatedAt": "2021-10-25T12:47:04.943Z",
  "devdoc": {
    "kind": "dev",
    "methods": {
      "owner()": {
        "details": "Returns the address of the current owner."
      },
      "renounceOwnership()": {
        "details": "Leaves the contract without owner. It will not be possible to call `onlyOwner` functions anymore. Can only be called by the current owner. NOTE: Renouncing ownership will leave the contract without an owner, thereby removing any functionality that is only available to the owner."
      },
      "transferOwnership(address)": {
        "details": "Transfers ownership of the contract to a new account (`newOwner`). Can only be called by the current owner."
      }
    },
    "version": 1
  },
  "userdoc": {
    "kind": "user",
    "methods": {},
    "version": 1
  }
}